{"contracts/DepegProtectionFactory.sol":{"DepegProtectionFactory":{"abi":[{"inputs":[],"stateMutability":"nonpayable","type":"constructor"},{"anonymous":false,"inputs":[{"indexed":true,"internalType":"address","name":"market","type":"address"},{"indexed":true,"internalType":"address","name":"creator","type":"address"},{"indexed":false,"internalType":"uint256","name":"index","type":"uint256"},{"indexed":false,"internalType":"bytes32","name":"feedId","type":"bytes32"},{"indexed":false,"internalType":"uint256","name":"barrierPpm","type":"uint256"},{"indexed":false,"internalType":"uint256","name":"windowSec","type":"uint256"},{"indexed":false,"internalType":"uint256","name":"horizonSec","type":"uint256"}],"name":"MarketCreated","type":"event"},{"inputs":[{"internalType":"string","name":"feedSymbol","type":"string"},{"internalType":"uint256","name":"barrierPpm","type":"uint256"},{"internalType":"uint256","name":"windowSec","type":"uint256"},{"internalType":"uint256","name":"horizonSec","type":"uint256"},{"internalType":"uint256","name":"lambdaMinBps","type":"uint256"},{"internalType":"uint256","name":"lambdaMaxBps","type":"uint256"},{"internalType":"uint256","name":"reserveFactorBps","type":"uint256"},{"internalType":"uint256","name":"maxPriceAgeSec","type":"uint256"},{"internalType":"address","name":"oracleSigner","type":"address"}],"name":"createMarket","outputs":[{"internalType":"address","name":"marketAddr","type":"address"},{"internalType":"uint256","name":"index","type":"uint256"}],"stateMutability":"nonpayable","type":"function"},{"inputs":[],"name":"getAllMarkets","outputs":[{"internalType":"address[]","name":"list","type":"address[]"}],"stateMutability":"view","type":"function"},{"inputs":[{"internalType":"uint256","name":"index","type":"uint256"}],"name":"getMarket","outputs":[{"internalType":"address","name":"market","type":"address"},{"internalType":"address","name":"creator","type":"address"},{"internalType":"uint256","name":"createdAt","type":"uint256"}],"stateMutability":"view","type":"function"},{"inputs":[{"internalType":"uint256","name":"","type":"uint256"}],"name":"markets","outputs":[{"internalType":"address","name":"market","type":"address"},{"internalType":"address","name":"creator","type":"address"},{"internalType":"uint256","name":"createdAt","type":"uint256"}],"stateMutability":"view","type":"function"},{"inputs":[],"name":"marketsCount","outputs":[{"internalType":"uint256","name":"","type":"uint256"}],"stateMutability":"view","type":"function"},{"inputs":[],"name":"owner","outputs":[{"internalType":"address","name":"","type":"address"}],"stateMutability":"view","type":"function"}],"evm":{"bytecode":{"linkReferences":{},"object":"608060405234801561001057600080fd5b50600080546001600160a01b03191633179055612559806100326000396000f3fe608060405234801561001057600080fd5b50600436106100625760003560e01c80631e8b5708146100675780632b17e9751461007d5780638da5cb5b146100af578063b0772d0b146100da578063b1283e77146100ef578063eb44fdd314610128575b600080fd5b6001546040519081526020015b60405180910390f35b61009061008b366004610535565b61013b565b604080516001600160a01b039093168352602083019190915201610074565b6000546100c2906001600160a01b031681565b6040516001600160a01b039091168152602001610074565b6100e261033a565b604051610074919061063b565b6101026100fd366004610688565b610403565b604080516001600160a01b03948516815293909216602084015290820152606001610074565b610102610136366004610688565b610443565b60008060008b8b8b8b8b8b8b8b8b604051610155906104f6565b610167999897969594939291906106a1565b604051809103906000f080158015610183573d6000803e3d6000fd5b50604080516060810182526001600160a01b038381168252336020830190815242938301938452600180548082018255600082905293517fb10e2d527612073b26eecdfd717e6a320cf44b4afac2b0732d9fcbe2b7fa0cf6600390950294850180546001600160a01b031990811692861692909217905591517fb10e2d527612073b26eecdfd717e6a320cf44b4afac2b0732d9fcbe2b7fa0cf785018054909316931692909217905591517fb10e2d527612073b26eecdfd717e6a320cf44b4afac2b0732d9fcbe2b7fa0cf890910155805491945084925061026491610758565b9150336001600160a01b0316836001600160a01b03167ff9bd2de3ef0ef0c6f252b4bfdfeedc3bc1ec81f2113b49254eb53c9c4c944dbc84846001600160a01b0316634a6434996040518163ffffffff1660e01b8152600401602060405180830381865afa1580156102da573d6000803e3d6000fd5b505050506040513d601f19601f820116820180604052508101906102fe9190610771565b60408051928352602083019190915281018f9052606081018e9052608081018d905260a00160405180910390a350995099975050505050505050565b60015460609067ffffffffffffffff81111561035857610358610503565b604051908082528060200260200182016040528015610381578160200160208202803683370190505b50905060005b6001548110156103ff57600181815481106103a4576103a461078a565b600091825260209091206003909102015482516001600160a01b03909116908390839081106103d5576103d561078a565b6001600160a01b0390921660209283029190910190910152806103f7816107a0565b915050610387565b5090565b6001818154811061041357600080fd5b60009182526020909120600390910201805460018201546002909201546001600160a01b03918216935091169083565b6000806000600180549050841061048c5760405162461bcd60e51b815260206004820152600960248201526824b73232bc1027a7a160b91b604482015260640160405180910390fd5b6000600185815481106104a1576104a161078a565b60009182526020918290206040805160608101825260039390930290910180546001600160a01b0390811680855260018301549091169484018590526002909101549290910182905297919650945092505050565b611d6a806107ba83390190565b634e487b7160e01b600052604160045260246000fd5b80356001600160a01b038116811461053057600080fd5b919050565b60008060008060008060008060006101208a8c03121561055457600080fd5b893567ffffffffffffffff8082111561056c57600080fd5b818c0191508c601f83011261058057600080fd5b81358181111561059257610592610503565b604051601f8201601f19908116603f011681019083821181831017156105ba576105ba610503565b816040528281528f60208487010111156105d357600080fd5b82602086016020830137600060208483010152809d50505050505060208a0135975060408a0135965060608a0135955060808a0135945060a08a0135935060c08a0135925060e08a0135915061062c6101008b01610519565b90509295985092959850929598565b6020808252825182820181905260009190848201906040850190845b8181101561067c5783516001600160a01b031683529284019291840191600101610657565b50909695505050505050565b60006020828403121561069a57600080fd5b5035919050565b60006101208083528b518082850152600091505b808210156106d7576020828e01015161014083860101526020820191506106b5565b6101409150600082828601015281601f19601f830116850101925050508960208301528860408301528760608301528660808301528560a08301528460c08301528360e08301526107346101008301846001600160a01b03169052565b9a9950505050505050505050565b634e487b7160e01b600052601160045260246000fd5b8181038181111561076b5761076b610742565b92915050565b60006020828403121561078357600080fd5b5051919050565b634e487b7160e01b600052603260045260246000fd5b6000600182016107b2576107b2610742565b506001019056fe61018060405260016005553480156200001757600080fd5b5060405162001d6a38038062001d6a8339810160408190526200003a91620000d0565b60008054336001600160a01b03199182161790915589516020909a019990992060805260a09790975260c09590955260e09390935261010091909152610120526101405261016052600180549092166001600160a01b03909116179055620001fc565b634e487b7160e01b600052604160045260246000fd5b80516001600160a01b0381168114620000cb57600080fd5b919050565b60008060008060008060008060006101208a8c031215620000f057600080fd5b89516001600160401b03808211156200010857600080fd5b818c0191508c601f8301126200011d57600080fd5b8151818111156200013257620001326200009d565b604051601f8201601f19908116603f011681019083821181831017156200015d576200015d6200009d565b81604052828152602093508f848487010111156200017a57600080fd5b600091505b828210156200019e57848201840151818301850152908301906200017f565b6000848483010152809d50505050808c01519950505060408a0151965060608a0151955060808a0151945060a08a0151935060c08a0151925060e08a01519150620001ed6101008b01620000b3565b90509295985092959850929598565b60805160a05160c05160e05161010051610120516101405161016051611a5262000318600039600081816104eb01528181610665015261108a0152600081816104c50152818161053b01528181610cc90152818161127f01526113250152600081816101e30152818161049f01528181610ee30152610f600152600081816102d90152818161047901528181610ec201528181610f0a01528181610f3f0152610fa301526000818161038201528181610453015281816111540152818161142401526114f401526000818161042b015281816106310152818161088f01526109fc0152600081816102a50152818161040501526109d6015260008181610271015281816103e2015281816109b0015261112e0152611a526000f3fe60806040526004361061014f5760003560e01c80639c8f9f23116100b6578063cad0b8db1161006f578063cad0b8db1461055d578063cb3ca04914610573578063d3e8948314610589578063d4ce89421461061f578063d78d42d514610653578063e8078d941461068757600080fd5b80639c8f9f2314610350578063a4b137f714610370578063a6159913146103a4578063afa5de48146103b9578063c3f909d4146103cc578063c87bed701461052957600080fd5b80634a643499116101085780634a6434991461025f57806389e8eb47146102935780638aa9aa54146102c75780638da5cb5b146102fb578063975e900e1461031b578063988f13a51461033057600080fd5b80630b65092d1461015b578063102d61461461019b57806315770f92146101bb5780631668f464146101d15780631709a61b1461020557806328bff9db1461023d57600080fd5b3661015657005b600080fd5b34801561016757600080fd5b506101886101763660046117f9565b60036020526000908152604090205481565b6040519081526020015b60405180910390f35b3480156101a757600080fd5b506101886101b6366004611829565b61068f565b3480156101c757600080fd5b5061018860025481565b3480156101dd57600080fd5b506101887f000000000000000000000000000000000000000000000000000000000000000081565b34801561021157600080fd5b50600154610225906001600160a01b031681565b6040516001600160a01b039091168152602001610192565b34801561024957600080fd5b5061025d6102583660046117f9565b6106d5565b005b34801561026b57600080fd5b506101887f000000000000000000000000000000000000000000000000000000000000000081565b34801561029f57600080fd5b506101887f000000000000000000000000000000000000000000000000000000000000000081565b3480156102d357600080fd5b506101887f000000000000000000000000000000000000000000000000000000000000000081565b34801561030757600080fd5b50600054610225906001600160a01b031681565b34801561032757600080fd5b50610188610774565b34801561033c57600080fd5b5061025d61034b366004611894565b6107a7565b34801561035c57600080fd5b5061025d61036b3660046118fe565b610c7f565b34801561037c57600080fd5b506101887f000000000000000000000000000000000000000000000000000000000000000081565b3480156103b057600080fd5b50610188610ebe565b61025d6103c7366004611917565b610fce565b3480156103d857600080fd5b50600154604080517f000000000000000000000000000000000000000000000000000000000000000081527f000000000000000000000000000000000000000000000000000000000000000060208201527f0000000000000000000000000000000000000000000000000000000000000000918101919091527f000000000000000000000000000000000000000000000000000000000000000060608201527f000000000000000000000000000000000000000000000000000000000000000060808201527f000000000000000000000000000000000000000000000000000000000000000060a08201527f000000000000000000000000000000000000000000000000000000000000000060c08201527f000000000000000000000000000000000000000000000000000000000000000060e08201526001600160a01b0390911661010082015261012001610192565b34801561053557600080fd5b506101887f000000000000000000000000000000000000000000000000000000000000000081565b34801561056957600080fd5b5061018860055481565b34801561057f57600080fd5b5061018860045481565b34801561059557600080fd5b506105e66105a43660046118fe565b6006602052600090815260409020805460018201546002830154600384015460048501546005909501546001600160a01b039094169492939192909160ff1686565b604080516001600160a01b03909716875260208701959095529385019290925260608401526080830152151560a082015260c001610192565b34801561062b57600080fd5b506101887f000000000000000000000000000000000000000000000000000000000000000081565b34801561065f57600080fd5b506101887f000000000000000000000000000000000000000000000000000000000000000081565b61025d611549565b60008061069a610ebe565b90506305f5e1006106ad8261271061198e565b6106b785876119a1565b6106c191906119a1565b6106cb91906119b8565b9150505b92915050565b6000546001600160a01b031633146107205760405162461bcd60e51b81526020600482015260096024820152682737ba1037bbb732b960b91b60448201526064015b60405180910390fd5b600180546001600160a01b0319166001600160a01b0383169081179091556040519081527f9787ad339c4bc9e4b4743a2e50da52ee5b40e7096843872095b8280a501522469060200160405180910390a150565b60006002546000036107865750600090565b600254600454610798906127106119a1565b6107a291906119b8565b905090565b600086815260066020526040902080546001600160a01b031633146107fa5760405162461bcd60e51b81526020600482015260096024820152682727aa2fa12aaca2a960b91b6044820152606401610717565b600581015460ff16156108395760405162461bcd60e51b815260206004820152600760248201526610d3105253515160ca1b6044820152606401610717565b80600301548610158015610851575080600401548611155b61088a5760405162461bcd60e51b815260206004820152600a6024820152694f55545f57494e444f5760b01b6044820152606401610717565b6108b47f00000000000000000000000000000000000000000000000000000000000000008761198e565b8510156108ed5760405162461bcd60e51b81526020600482015260076024820152662120a22fa92aa760c91b6044820152606401610717565b844210156109285760405162461bcd60e51b815260206004820152600860248201526715d0525517d1539160c21b6044820152606401610717565b6201518061093685426119da565b11156109715760405162461bcd60e51b815260206004820152600a6024820152695354414c455f5452494760b01b6044820152606401610717565b604080516d4644433a545249474745525f563160901b6020808301919091523060601b6bffffffffffffffffffffffff1916602e8301524660428301527f000000000000000000000000000000000000000000000000000000000000000060628301527f000000000000000000000000000000000000000000000000000000000000000060828301527f000000000000000000000000000000000000000000000000000000000000000060a283015260c2820189905260e28201889052600160f81b61010283015261010380830188905283518084039091018152610123830184528051908201207f19457468657265756d205369676e6564204d6573736167653a0a33320000000061014384015261015f808401919091528351808403909101815261017f90920190925280519101206000610ae48286868080601f0160208091040260200160405190810160405280939291908181526020018383808284376000920191909152506115f692505050565b6001549091506001600160a01b03808316911614610b2e5760405162461bcd60e51b81526020600482015260076024820152664241445f53494760c81b6044820152606401610717565b60058301805460ff1916600190811790915583015460048054600090610b559084906119da565b90915550506001830154471015610b9a5760405162461bcd60e51b8152602060048201526009602482015268125394d3d31591539560ba1b6044820152606401610717565b825460018401546040516000926001600160a01b031691908381818185875af1925050503d8060008114610bea576040519150601f19603f3d011682016040523d82523d6000602084013e610bef565b606091505b5050905080610c2b5760405162461bcd60e51b815260206004820152600860248201526714105657d190525360c21b6044820152606401610717565b835460018501546040519081526001600160a01b03909116908b907f4ec90e965519d92681267467f775ada5bd214aa92c0dc93d90a5e880ce9ed0269060200160405180910390a350505050505050505050565b3360009081526003602052604090205481811015610cc55760405162461bcd60e51b815260206004820152600360248201526210905360ea1b6044820152606401610717565b60007f0000000000000000000000000000000000000000000000000000000000000000600454612710610cf891906119a1565b610d0291906119b8565b9050806002541015610d4a5760405162461bcd60e51b8152602060048201526011602482015270125394d551919250d251539517d413d3d3607a1b6044820152606401610717565b60008160025411610d5c576000610d6a565b81600254610d6a91906119da565b905060006002548285610d7d91906119a1565b610d8791906119b8565b905080851115610dca5760405162461bcd60e51b815260206004820152600e60248201526d15d2551211149055d7d31253525560921b6044820152606401610717565b610dd485856119da565b3360009081526003602052604081209190915560028054879290610df99084906119da565b9091555050604051600090339087908381818185875af1925050503d8060008114610e40576040519150601f19603f3d011682016040523d82523d6000602084013e610e45565b606091505b5050905080610e815760405162461bcd60e51b81526020600482015260086024820152672a2920a729a322a960c11b6044820152606401610717565b60405186815233907fc2c3f06e49b9f15e7b4af9055e183b0d73362e033ad82a07dec9bf98401717199060200160405180910390a2505050505050565b60007f00000000000000000000000000000000000000000000000000000000000000007f000000000000000000000000000000000000000000000000000000000000000011610f2c57507f000000000000000000000000000000000000000000000000000000000000000090565b6000610f36610774565b90506000610f847f00000000000000000000000000000000000000000000000000000000000000007f00000000000000000000000000000000000000000000000000000000000000006119da565b9050612710610f9383836119a1565b610f9d91906119b8565b610fc7907f000000000000000000000000000000000000000000000000000000000000000061198e565b9250505090565b600085116110095760405162461bcd60e51b81526020600482015260086024820152671393d51253d3905360c21b6044820152606401610717565b6001546001600160a01b031661104d5760405162461bcd60e51b81526020600482015260096024820152682727afa9a4a3a722a960b91b6044820152606401610717565b824210156110885760405162461bcd60e51b81526020600482015260086024820152674241445f54494d4560c01b6044820152606401610717565b7f00000000000000000000000000000000000000000000000000000000000000006110b384426119da565b11156110eb5760405162461bcd60e51b815260206004820152600760248201526605354414c455f560cc1b6044820152606401610717565b60006111ed8585604080516a4644433a50524f425f563160a81b6020808301919091523060601b6bffffffffffffffffffffffff1916602b83015246603f8301527f0000000000000000000000000000000000000000000000000000000000000000605f8301527f0000000000000000000000000000000000000000000000000000000000000000607f830152609f820185905260bf8083018590528351808403909101815260df830184528051908201207f19457468657265756d205369676e6564204d6573736167653a0a33320000000060ff84015261011b8084018290528451808503909101815261013b9093019093528151910120600091906106cb565b905060006112318285858080601f0160208091040260200160405190810160405280939291908181526020018383808284376000920191909152506115f692505050565b6001549091506001600160a01b0380831691161461127b5760405162461bcd60e51b81526020600482015260076024820152664241445f53494760c81b6044820152606401610717565b60007f0000000000000000000000000000000000000000000000000000000000000000116112d15760405162461bcd60e51b815260206004820152600360248201526252455360e81b6044820152606401610717565b60006002541161130c5760405162461bcd60e51b81526020600482015260066024820152654e4f5f4c495160d01b6044820152606401610717565b60008760045461131c919061198e565b905060006127107f000000000000000000000000000000000000000000000000000000000000000060025461135191906119a1565b61135b91906119b8565b9050808211156113985760405162461bcd60e51b8152602060048201526008602482015267434150414349545960c01b6044820152606401610717565b60006113a48a8a61068f565b90508034146113df5760405162461bcd60e51b81526020600482015260076024820152665052454d49554d60c81b6044820152606401610717565b60058054600091826113f0836119ed565b9190505590506040518060c00160405280336001600160a01b031681526020018c81526020018381526020014281526020017f00000000000000000000000000000000000000000000000000000000000000004261144e919061198e565b81526000602091820181905283815260068252604090819020835181546001600160a01b0319166001600160a01b03909116178155918301516001830155820151600282015560608201516003820155608082015160048083019190915560a0909201516005909101805460ff191691151591909117905584905533817f769125ea19d73e738071160f34a919829f06d67f3aac561fc983185169e141c78d85426115197f00000000000000000000000000000000000000000000000000000000000000008261198e565b60408051948552602085019390935291830152606082015260800160405180910390a35050505050505050505050565b600034116115825760405162461bcd60e51b8152602060048201526006602482015265105353d5539560d21b6044820152606401610717565b33600090815260036020526040812080543492906115a190849061198e565b9250508190555034600260008282546115ba919061198e565b909155505060405134815233907fc17cea59c2955cb181b03393209566960365771dbba9dc3d510180e7cb3120889060200160405180910390a2565b6000806000806116068686611620565b925092509250611616828261166d565b5090949350505050565b6000806000835160410361165a5760208401516040850151606086015160001a61164c8882858561172a565b955095509550505050611666565b50508151600091506002905b9250925092565b600082600381111561168157611681611a06565b0361168a575050565b600182600381111561169e5761169e611a06565b036116bc5760405163f645eedf60e01b815260040160405180910390fd5b60028260038111156116d0576116d0611a06565b036116f15760405163fce698f760e01b815260048101829052602401610717565b600382600381111561170557611705611a06565b03611726576040516335e2f38360e21b815260048101829052602401610717565b5050565b600080807f7fffffffffffffffffffffffffffffff5d576e7357a4501ddfe92f46681b20a084111561176557506000915060039050826117ef565b604080516000808252602082018084528a905260ff891692820192909252606081018790526080810186905260019060a0016020604051602081039080840390855afa1580156117b9573d6000803e3d6000fd5b5050604051601f1901519150506001600160a01b0381166117e5575060009250600191508290506117ef565b9250600091508190505b9450945094915050565b60006020828403121561180b57600080fd5b81356001600160a01b038116811461182257600080fd5b9392505050565b6000806040838503121561183c57600080fd5b50508035926020909101359150565b60008083601f84011261185d57600080fd5b50813567ffffffffffffffff81111561187557600080fd5b60208301915083602082850101111561188d57600080fd5b9250929050565b60008060008060008060a087890312156118ad57600080fd5b86359550602087013594506040870135935060608701359250608087013567ffffffffffffffff8111156118e057600080fd5b6118ec89828a0161184b565b979a9699509497509295939492505050565b60006020828403121561191057600080fd5b5035919050565b60008060008060006080868803121561192f57600080fd5b853594506020860135935060408601359250606086013567ffffffffffffffff81111561195b57600080fd5b6119678882890161184b565b969995985093965092949392505050565b634e487b7160e01b600052601160045260246000fd5b808201808211156106cf576106cf611978565b80820281158282048414176106cf576106cf611978565b6000826119d557634e487b7160e01b600052601260045260246000fd5b500490565b818103818111156106cf576106cf611978565b6000600182016119ff576119ff611978565b5060010190565b634e487b7160e01b600052602160045260246000fdfea26469706673582212205e93ed1b6dcc51bd9f6c5eb17204db2cb12ef86987e515381e5c8db29fab241064736f6c63430008140033a26469706673582212209b720ad5bbe4fa4a329bae859e193dcc73b5a4efb1f8c0bb56825c0ec601b16164736f6c63430008140033","opcodes":"PUSH1 0x80 PUSH1 0x40 MSTORE CALLVALUE DUP1 ISZERO PUSH2 0x10 JUMPI PUSH1 0x0 DUP1 REVERT JUMPDEST POP PUSH1 0x0 DUP1 SLOAD PUSH1 0x1 PUSH1 0x1 PUSH1 0xA0 SHL SUB NOT AND CALLER OR SWAP1 SSTORE PUSH2 0x2559 DUP1 PUSH2 0x32 PUSH1 0x0 CODECOPY PUSH1 0x0 RETURN INVALID PUSH1 0x80 PUSH1 0x40 MSTORE CALLVALUE DUP1 ISZERO PUSH2 0x10 JUMPI PUSH1 0x0 DUP1 REVERT JUMPDEST POP PUSH1 0x4 CALLDATASIZE LT PUSH2 0x62 JUMPI PUSH1 0x0 CALLDATALOAD PUSH1 0xE0 SHR DUP1 PUSH4 0x1E8B5708 EQ PUSH2 0x67 JUMPI DUP1 PUSH4 0x2B17E975 EQ PUSH2 0x7D JUMPI DUP1 PUSH4 0x8DA5CB5B EQ PUSH2 0xAF JUMPI DUP1 PUSH4 0xB0772D0B EQ PUSH2 0xDA JUMPI DUP1 PUSH4 0xB1283E77 EQ PUSH2 0xEF JUMPI DUP1 PUSH4 0xEB44FDD3 EQ PUSH2 0x128 JUMPI JUMPDEST PUSH1 0x0 DUP1 REVERT JUMPDEST PUSH1 0x1 SLOAD PUSH1 0x40 MLOAD SWAP1 DUP2 MSTORE PUSH1 0x20 ADD JUMPDEST PUSH1 0x40 MLOAD DUP1 SWAP2 SUB SWAP1 RETURN JUMPDEST PUSH2 0x90 PUSH2 0x8B CALLDATASIZE PUSH1 0x4 PUSH2 0x535 JUMP JUMPDEST PUSH2 0x13B JUMP JUMPDEST PUSH1 0x40 DUP1 MLOAD PUSH1 0x1 PUSH1 0x1 PUSH1 0xA0 SHL SUB SWAP1 SWAP4 AND DUP4 MSTORE PUSH1 0x20 DUP4 ADD SWAP2 SWAP1 SWAP2 MSTORE ADD PUSH2 0x74 JUMP JUMPDEST PUSH1 0x0 SLOAD PUSH2 0xC2 SWAP1 PUSH1 0x1 PUSH1 0x1 PUSH1 0xA0 SHL SUB AND DUP2 JUMP JUMPDEST PUSH1 0x40 MLOAD PUSH1 0x1 PUSH1 0x1 PUSH1 0xA0 SHL SUB SWAP1 SWAP2 AND DUP2 MSTORE PUSH1 0x20 ADD PUSH2 0x74 JUMP JUMPDEST PUSH2 0xE2 PUSH2 0x33A JUMP JUMPDEST PUSH1 0x40 MLOAD PUSH2 0x74 SWAP2 SWAP1 PUSH2 0x63B JUMP JUMPDEST PUSH2 0x102 PUSH2 0xFD CALLDATASIZE PUSH1 0x4 PUSH2 0x688 JUMP JUMPDEST PUSH2 0x403 JUMP JUMPDEST PUSH1 0x40 DUP1 MLOAD PUSH1 0x1 PUSH1 0x1 PUSH1 0xA0 SHL SUB SWAP5 DUP6 AND DUP2 MSTORE SWAP4 SWAP1 SWAP3 AND PUSH1 0x20 DUP5 ADD MSTORE SWAP1 DUP3 ADD MSTORE PUSH1 0x60 ADD PUSH2 0x74 JUMP JUMPDEST PUSH2 0x102 PUSH2 0x136 CALLDATASIZE PUSH1 0x4 PUSH2 0x688 JUMP JUMPDEST PUSH2 0x443 JUMP JUMPDEST PUSH1 0x0 DUP1 PUSH1 0x0 DUP12 DUP12 DUP12 DUP12 DUP12 DUP12 DUP12 DUP12 DUP12 PUSH1 0x40 MLOAD PUSH2 0x155 SWAP1 PUSH2 0x4F6 JUMP JUMPDEST PUSH2 0x167 SWAP10 SWAP9 SWAP8 SWAP7 SWAP6 SWAP5 SWAP4 SWAP3 SWAP2 SWAP1 PUSH2 0x6A1 JUMP JUMPDEST PUSH1 0x40 MLOAD DUP1 SWAP2 SUB SWAP1 PUSH1 0x0 CREATE DUP1 ISZERO DUP1 ISZERO PUSH2 0x183 JUMPI RETURNDATASIZE PUSH1 0x0 DUP1 RETURNDATACOPY RETURNDATASIZE PUSH1 0x0 REVERT JUMPDEST POP PUSH1 0x40 DUP1 MLOAD PUSH1 0x60 DUP2 ADD DUP3 MSTORE PUSH1 0x1 PUSH1 0x1 PUSH1 0xA0 SHL SUB DUP4 DUP2 AND DUP3 MSTORE CALLER PUSH1 0x20 DUP4 ADD SWAP1 DUP2 MSTORE TIMESTAMP SWAP4 DUP4 ADD SWAP4 DUP5 MSTORE PUSH1 0x1 DUP1 SLOAD DUP1 DUP3 ADD DUP3 SSTORE PUSH1 0x0 DUP3 SWAP1 MSTORE SWAP4 MLOAD PUSH32 0xB10E2D527612073B26EECDFD717E6A320CF44B4AFAC2B0732D9FCBE2B7FA0CF6 PUSH1 0x3 SWAP1 SWAP6 MUL SWAP5 DUP6 ADD DUP1 SLOAD PUSH1 0x1 PUSH1 0x1 PUSH1 0xA0 SHL SUB NOT SWAP1 DUP2 AND SWAP3 DUP7 AND SWAP3 SWAP1 SWAP3 OR SWAP1 SSTORE SWAP2 MLOAD PUSH32 0xB10E2D527612073B26EECDFD717E6A320CF44B4AFAC2B0732D9FCBE2B7FA0CF7 DUP6 ADD DUP1 SLOAD SWAP1 SWAP4 AND SWAP4 AND SWAP3 SWAP1 SWAP3 OR SWAP1 SSTORE SWAP2 MLOAD PUSH32 0xB10E2D527612073B26EECDFD717E6A320CF44B4AFAC2B0732D9FCBE2B7FA0CF8 SWAP1 SWAP2 ADD SSTORE DUP1 SLOAD SWAP2 SWAP5 POP DUP5 SWAP3 POP PUSH2 0x264 SWAP2 PUSH2 0x758 JUMP JUMPDEST SWAP2 POP CALLER PUSH1 0x1 PUSH1 0x1 PUSH1 0xA0 SHL SUB AND DUP4 PUSH1 0x1 PUSH1 0x1 PUSH1 0xA0 SHL SUB AND PUSH32 0xF9BD2DE3EF0EF0C6F252B4BFDFEEDC3BC1EC81F2113B49254EB53C9C4C944DBC DUP5 DUP5 PUSH1 0x1 PUSH1 0x1 PUSH1 0xA0 SHL SUB AND PUSH4 0x4A643499 PUSH1 0x40 MLOAD DUP2 PUSH4 0xFFFFFFFF AND PUSH1 0xE0 SHL DUP2 MSTORE PUSH1 0x4 ADD PUSH1 0x20 PUSH1 0x40 MLOAD DUP1 DUP4 SUB DUP2 DUP7 GAS STATICCALL ISZERO DUP1 ISZERO PUSH2 0x2DA JUMPI RETURNDATASIZE PUSH1 0x0 DUP1 RETURNDATACOPY RETURNDATASIZE PUSH1 0x0 REVERT JUMPDEST POP POP POP POP PUSH1 0x40 MLOAD RETURNDATASIZE PUSH1 0x1F NOT PUSH1 0x1F DUP3 ADD AND DUP3 ADD DUP1 PUSH1 0x40 MSTORE POP DUP2 ADD SWAP1 PUSH2 0x2FE SWAP2 SWAP1 PUSH2 0x771 JUMP JUMPDEST PUSH1 0x40 DUP1 MLOAD SWAP3 DUP4 MSTORE PUSH1 0x20 DUP4 ADD SWAP2 SWAP1 SWAP2 MSTORE DUP2 ADD DUP16 SWAP1 MSTORE PUSH1 0x60 DUP2 ADD DUP15 SWAP1 MSTORE PUSH1 0x80 DUP2 ADD DUP14 SWAP1 MSTORE PUSH1 0xA0 ADD PUSH1 0x40 MLOAD DUP1 SWAP2 SUB SWAP1 LOG3 POP SWAP10 POP SWAP10 SWAP8 POP POP POP POP POP POP POP POP JUMP JUMPDEST PUSH1 0x1 SLOAD PUSH1 0x60 SWAP1 PUSH8 0xFFFFFFFFFFFFFFFF DUP2 GT ISZERO PUSH2 0x358 JUMPI PUSH2 0x358 PUSH2 0x503 JUMP JUMPDEST PUSH1 0x40 MLOAD SWAP1 DUP1 DUP3 MSTORE DUP1 PUSH1 0x20 MUL PUSH1 0x20 ADD DUP3 ADD PUSH1 0x40 MSTORE DUP1 ISZERO PUSH2 0x381 JUMPI DUP2 PUSH1 0x20 ADD PUSH1 0x20 DUP3 MUL DUP1 CALLDATASIZE DUP4 CALLDATACOPY ADD SWAP1 POP JUMPDEST POP SWAP1 POP PUSH1 0x0 JUMPDEST PUSH1 0x1 SLOAD DUP2 LT ISZERO PUSH2 0x3FF JUMPI PUSH1 0x1 DUP2 DUP2 SLOAD DUP2 LT PUSH2 0x3A4 JUMPI PUSH2 0x3A4 PUSH2 0x78A JUMP JUMPDEST PUSH1 0x0 SWAP2 DUP3 MSTORE PUSH1 0x20 SWAP1 SWAP2 KECCAK256 PUSH1 0x3 SWAP1 SWAP2 MUL ADD SLOAD DUP3 MLOAD PUSH1 0x1 PUSH1 0x1 PUSH1 0xA0 SHL SUB SWAP1 SWAP2 AND SWAP1 DUP4 SWAP1 DUP4 SWAP1 DUP2 LT PUSH2 0x3D5 JUMPI PUSH2 0x3D5 PUSH2 0x78A JUMP JUMPDEST PUSH1 0x1 PUSH1 0x1 PUSH1 0xA0 SHL SUB SWAP1 SWAP3 AND PUSH1 0x20 SWAP3 DUP4 MUL SWAP2 SWAP1 SWAP2 ADD SWAP1 SWAP2 ADD MSTORE DUP1 PUSH2 0x3F7 DUP2 PUSH2 0x7A0 JUMP JUMPDEST SWAP2 POP POP PUSH2 0x387 JUMP JUMPDEST POP SWAP1 JUMP JUMPDEST PUSH1 0x1 DUP2 DUP2 SLOAD DUP2 LT PUSH2 0x413 JUMPI PUSH1 0x0 DUP1 REVERT JUMPDEST PUSH1 0x0 SWAP2 DUP3 MSTORE PUSH1 0x20 SWAP1 SWAP2 KECCAK256 PUSH1 0x3 SWAP1 SWAP2 MUL ADD DUP1 SLOAD PUSH1 0x1 DUP3 ADD SLOAD PUSH1 0x2 SWAP1 SWAP3 ADD SLOAD PUSH1 0x1 PUSH1 0x1 PUSH1 0xA0 SHL SUB SWAP2 DUP3 AND SWAP4 POP SWAP2 AND SWAP1 DUP4 JUMP JUMPDEST PUSH1 0x0 DUP1 PUSH1 0x0 PUSH1 0x1 DUP1 SLOAD SWAP1 POP DUP5 LT PUSH2 0x48C JUMPI PUSH1 0x40 MLOAD PUSH3 0x461BCD PUSH1 0xE5 SHL DUP2 MSTORE PUSH1 0x20 PUSH1 0x4 DUP3 ADD MSTORE PUSH1 0x9 PUSH1 0x24 DUP3 ADD MSTORE PUSH9 0x24B73232BC1027A7A1 PUSH1 0xB9 SHL PUSH1 0x44 DUP3 ADD MSTORE PUSH1 0x64 ADD PUSH1 0x40 MLOAD DUP1 SWAP2 SUB SWAP1 REVERT JUMPDEST PUSH1 0x0 PUSH1 0x1 DUP6 DUP2 SLOAD DUP2 LT PUSH2 0x4A1 JUMPI PUSH2 0x4A1 PUSH2 0x78A JUMP JUMPDEST PUSH1 0x0 SWAP2 DUP3 MSTORE PUSH1 0x20 SWAP2 DUP3 SWAP1 KECCAK256 PUSH1 0x40 DUP1 MLOAD PUSH1 0x60 DUP2 ADD DUP3 MSTORE PUSH1 0x3 SWAP4 SWAP1 SWAP4 MUL SWAP1 SWAP2 ADD DUP1 SLOAD PUSH1 0x1 PUSH1 0x1 PUSH1 0xA0 SHL SUB SWAP1 DUP2 AND DUP1 DUP6 MSTORE PUSH1 0x1 DUP4 ADD SLOAD SWAP1 SWAP2 AND SWAP5 DUP5 ADD DUP6 SWAP1 MSTORE PUSH1 0x2 SWAP1 SWAP2 ADD SLOAD SWAP3 SWAP1 SWAP2 ADD DUP3 SWAP1 MSTORE SWAP8 SWAP2 SWAP7 POP SWAP5 POP SWAP3 POP POP POP JUMP JUMPDEST PUSH2 0x1D6A DUP1 PUSH2 0x7BA DUP4 CODECOPY ADD SWAP1 JUMP JUMPDEST PUSH4 0x4E487B71 PUSH1 0xE0 SHL PUSH1 0x0 MSTORE PUSH1 0x41 PUSH1 0x4 MSTORE PUSH1 0x24 PUSH1 0x0 REVERT JUMPDEST DUP1 CALLDATALOAD PUSH1 0x1 PUSH1 0x1 PUSH1 0xA0 SHL SUB DUP2 AND DUP2 EQ PUSH2 0x530 JUMPI PUSH1 0x0 DUP1 REVERT JUMPDEST SWAP2 SWAP1 POP JUMP JUMPDEST PUSH1 0x0 DUP1 PUSH1 0x0 DUP1 PUSH1 0x0 DUP1 PUSH1 0x0 DUP1 PUSH1 0x0 PUSH2 0x120 DUP11 DUP13 SUB SLT ISZERO PUSH2 0x554 JUMPI PUSH1 0x0 DUP1 REVERT JUMPDEST DUP10 CALLDATALOAD PUSH8 0xFFFFFFFFFFFFFFFF DUP1 DUP3 GT ISZERO PUSH2 0x56C JUMPI PUSH1 0x0 DUP1 REVERT JUMPDEST DUP2 DUP13 ADD SWAP2 POP DUP13 PUSH1 0x1F DUP4 ADD SLT PUSH2 0x580 JUMPI PUSH1 0x0 DUP1 REVERT JUMPDEST DUP2 CALLDATALOAD DUP2 DUP2 GT ISZERO PUSH2 0x592 JUMPI PUSH2 0x592 PUSH2 0x503 JUMP JUMPDEST PUSH1 0x40 MLOAD PUSH1 0x1F DUP3 ADD PUSH1 0x1F NOT SWAP1 DUP2 AND PUSH1 0x3F ADD AND DUP2 ADD SWAP1 DUP4 DUP3 GT DUP2 DUP4 LT OR ISZERO PUSH2 0x5BA JUMPI PUSH2 0x5BA PUSH2 0x503 JUMP JUMPDEST DUP2 PUSH1 0x40 MSTORE DUP3 DUP2 MSTORE DUP16 PUSH1 0x20 DUP5 DUP8 ADD ADD GT ISZERO PUSH2 0x5D3 JUMPI PUSH1 0x0 DUP1 REVERT JUMPDEST DUP3 PUSH1 0x20 DUP7 ADD PUSH1 0x20 DUP4 ADD CALLDATACOPY PUSH1 0x0 PUSH1 0x20 DUP5 DUP4 ADD ADD MSTORE DUP1 SWAP14 POP POP POP POP POP POP PUSH1 0x20 DUP11 ADD CALLDATALOAD SWAP8 POP PUSH1 0x40 DUP11 ADD CALLDATALOAD SWAP7 POP PUSH1 0x60 DUP11 ADD CALLDATALOAD SWAP6 POP PUSH1 0x80 DUP11 ADD CALLDATALOAD SWAP5 POP PUSH1 0xA0 DUP11 ADD CALLDATALOAD SWAP4 POP PUSH1 0xC0 DUP11 ADD CALLDATALOAD SWAP3 POP PUSH1 0xE0 DUP11 ADD CALLDATALOAD SWAP2 POP PUSH2 0x62C PUSH2 0x100 DUP12 ADD PUSH2 0x519 JUMP JUMPDEST SWAP1 POP SWAP3 SWAP6 SWAP9 POP SWAP3 SWAP6 SWAP9 POP SWAP3 SWAP6 SWAP9 JUMP JUMPDEST PUSH1 0x20 DUP1 DUP3 MSTORE DUP3 MLOAD DUP3 DUP3 ADD DUP2 SWAP1 MSTORE PUSH1 0x0 SWAP2 SWAP1 DUP5 DUP3 ADD SWAP1 PUSH1 0x40 DUP6 ADD SWAP1 DUP5 JUMPDEST DUP2 DUP2 LT ISZERO PUSH2 0x67C JUMPI DUP4 MLOAD PUSH1 0x1 PUSH1 0x1 PUSH1 0xA0 SHL SUB AND DUP4 MSTORE SWAP3 DUP5 ADD SWAP3 SWAP2 DUP5 ADD SWAP2 PUSH1 0x1 ADD PUSH2 0x657 JUMP JUMPDEST POP SWAP1 SWAP7 SWAP6 POP POP POP POP POP POP JUMP JUMPDEST PUSH1 0x0 PUSH1 0x20 DUP3 DUP5 SUB SLT ISZERO PUSH2 0x69A JUMPI PUSH1 0x0 DUP1 REVERT JUMPDEST POP CALLDATALOAD SWAP2 SWAP1 POP JUMP JUMPDEST PUSH1 0x0 PUSH2 0x120 DUP1 DUP4 MSTORE DUP12 MLOAD DUP1 DUP3 DUP6 ADD MSTORE PUSH1 0x0 SWAP2 POP JUMPDEST DUP1 DUP3 LT ISZERO PUSH2 0x6D7 JUMPI PUSH1 0x20 DUP3 DUP15 ADD ADD MLOAD PUSH2 0x140 DUP4 DUP7 ADD ADD MSTORE PUSH1 0x20 DUP3 ADD SWAP2 POP PUSH2 0x6B5 JUMP JUMPDEST PUSH2 0x140 SWAP2 POP PUSH1 0x0 DUP3 DUP3 DUP7 ADD ADD MSTORE DUP2 PUSH1 0x1F NOT PUSH1 0x1F DUP4 ADD AND DUP6 ADD ADD SWAP3 POP POP POP DUP10 PUSH1 0x20 DUP4 ADD MSTORE DUP9 PUSH1 0x40 DUP4 ADD MSTORE DUP8 PUSH1 0x60 DUP4 ADD MSTORE DUP7 PUSH1 0x80 DUP4 ADD MSTORE DUP6 PUSH1 0xA0 DUP4 ADD MSTORE DUP5 PUSH1 0xC0 DUP4 ADD MSTORE DUP4 PUSH1 0xE0 DUP4 ADD MSTORE PUSH2 0x734 PUSH2 0x100 DUP4 ADD DUP5 PUSH1 0x1 PUSH1 0x1 PUSH1 0xA0 SHL SUB AND SWAP1 MSTORE JUMP JUMPDEST SWAP11 SWAP10 POP POP POP POP POP POP POP POP POP POP JUMP JUMPDEST PUSH4 0x4E487B71 PUSH1 0xE0 SHL PUSH1 0x0 MSTORE PUSH1 0x11 PUSH1 0x4 MSTORE PUSH1 0x24 PUSH1 0x0 REVERT JUMPDEST DUP2 DUP2 SUB DUP2 DUP2 GT ISZERO PUSH2 0x76B JUMPI PUSH2 0x76B PUSH2 0x742 JUMP JUMPDEST SWAP3 SWAP2 POP POP JUMP JUMPDEST PUSH1 0x0 PUSH1 0x20 DUP3 DUP5 SUB SLT ISZERO PUSH2 0x783 JUMPI PUSH1 0x0 DUP1 REVERT JUMPDEST POP MLOAD SWAP2 SWAP1 POP JUMP JUMPDEST PUSH4 0x4E487B71 PUSH1 0xE0 SHL PUSH1 0x0 MSTORE PUSH1 0x32 PUSH1 0x4 MSTORE PUSH1 0x24 PUSH1 0x0 REVERT JUMPDEST PUSH1 0x0 PUSH1 0x1 DUP3 ADD PUSH2 0x7B2 JUMPI PUSH2 0x7B2 PUSH2 0x742 JUMP JUMPDEST POP PUSH1 0x1 ADD SWAP1 JUMP INVALID PUSH2 0x180 PUSH1 0x40 MSTORE PUSH1 0x1 PUSH1 0x5 SSTORE CALLVALUE DUP1 ISZERO PUSH3 0x17 JUMPI PUSH1 0x0 DUP1 REVERT JUMPDEST POP PUSH1 0x40 MLOAD PUSH3 0x1D6A CODESIZE SUB DUP1 PUSH3 0x1D6A DUP4 CODECOPY DUP2 ADD PUSH1 0x40 DUP2 SWAP1 MSTORE PUSH3 0x3A SWAP2 PUSH3 0xD0 JUMP JUMPDEST PUSH1 0x0 DUP1 SLOAD CALLER PUSH1 0x1 PUSH1 0x1 PUSH1 0xA0 SHL SUB NOT SWAP2 DUP3 AND OR SWAP1 SWAP2 SSTORE DUP10 MLOAD PUSH1 0x20 SWAP1 SWAP11 ADD SWAP10 SWAP1 SWAP10 KECCAK256 PUSH1 0x80 MSTORE PUSH1 0xA0 SWAP8 SWAP1 SWAP8 MSTORE PUSH1 0xC0 SWAP6 SWAP1 SWAP6 MSTORE PUSH1 0xE0 SWAP4 SWAP1 SWAP4 MSTORE PUSH2 0x100 SWAP2 SWAP1 SWAP2 MSTORE PUSH2 0x120 MSTORE PUSH2 0x140 MSTORE PUSH2 0x160 MSTORE PUSH1 0x1 DUP1 SLOAD SWAP1 SWAP3 AND PUSH1 0x1 PUSH1 0x1 PUSH1 0xA0 SHL SUB SWAP1 SWAP2 AND OR SWAP1 SSTORE PUSH3 0x1FC JUMP JUMPDEST PUSH4 0x4E487B71 PUSH1 0xE0 SHL PUSH1 0x0 MSTORE PUSH1 0x41 PUSH1 0x4 MSTORE PUSH1 0x24 PUSH1 0x0 REVERT JUMPDEST DUP1 MLOAD PUSH1 0x1 PUSH1 0x1 PUSH1 0xA0 SHL SUB DUP2 AND DUP2 EQ PUSH3 0xCB JUMPI PUSH1 0x0 DUP1 REVERT JUMPDEST SWAP2 SWAP1 POP JUMP JUMPDEST PUSH1 0x0 DUP1 PUSH1 0x0 DUP1 PUSH1 0x0 DUP1 PUSH1 0x0 DUP1 PUSH1 0x0 PUSH2 0x120 DUP11 DUP13 SUB SLT ISZERO PUSH3 0xF0 JUMPI PUSH1 0x0 DUP1 REVERT JUMPDEST DUP10 MLOAD PUSH1 0x1 PUSH1 0x1 PUSH1 0x40 SHL SUB DUP1 DUP3 GT ISZERO PUSH3 0x108 JUMPI PUSH1 0x0 DUP1 REVERT JUMPDEST DUP2 DUP13 ADD SWAP2 POP DUP13 PUSH1 0x1F DUP4 ADD SLT PUSH3 0x11D JUMPI PUSH1 0x0 DUP1 REVERT JUMPDEST DUP2 MLOAD DUP2 DUP2 GT ISZERO PUSH3 0x132 JUMPI PUSH3 0x132 PUSH3 0x9D JUMP JUMPDEST PUSH1 0x40 MLOAD PUSH1 0x1F DUP3 ADD PUSH1 0x1F NOT SWAP1 DUP2 AND PUSH1 0x3F ADD AND DUP2 ADD SWAP1 DUP4 DUP3 GT DUP2 DUP4 LT OR ISZERO PUSH3 0x15D JUMPI PUSH3 0x15D PUSH3 0x9D JUMP JUMPDEST DUP2 PUSH1 0x40 MSTORE DUP3 DUP2 MSTORE PUSH1 0x20 SWAP4 POP DUP16 DUP5 DUP5 DUP8 ADD ADD GT ISZERO PUSH3 0x17A JUMPI PUSH1 0x0 DUP1 REVERT JUMPDEST PUSH1 0x0 SWAP2 POP JUMPDEST DUP3 DUP3 LT ISZERO PUSH3 0x19E JUMPI DUP5 DUP3 ADD DUP5 ADD MLOAD DUP2 DUP4 ADD DUP6 ADD MSTORE SWAP1 DUP4 ADD SWAP1 PUSH3 0x17F JUMP JUMPDEST PUSH1 0x0 DUP5 DUP5 DUP4 ADD ADD MSTORE DUP1 SWAP14 POP POP POP POP DUP1 DUP13 ADD MLOAD SWAP10 POP POP POP PUSH1 0x40 DUP11 ADD MLOAD SWAP7 POP PUSH1 0x60 DUP11 ADD MLOAD SWAP6 POP PUSH1 0x80 DUP11 ADD MLOAD SWAP5 POP PUSH1 0xA0 DUP11 ADD MLOAD SWAP4 POP PUSH1 0xC0 DUP11 ADD MLOAD SWAP3 POP PUSH1 0xE0 DUP11 ADD MLOAD SWAP2 POP PUSH3 0x1ED PUSH2 0x100 DUP12 ADD PUSH3 0xB3 JUMP JUMPDEST SWAP1 POP SWAP3 SWAP6 SWAP9 POP SWAP3 SWAP6 SWAP9 POP SWAP3 SWAP6 SWAP9 JUMP JUMPDEST PUSH1 0x80 MLOAD PUSH1 0xA0 MLOAD PUSH1 0xC0 MLOAD PUSH1 0xE0 MLOAD PUSH2 0x100 MLOAD PUSH2 0x120 MLOAD PUSH2 0x140 MLOAD PUSH2 0x160 MLOAD PUSH2 0x1A52 PUSH3 0x318 PUSH1 0x0 CODECOPY PUSH1 0x0 DUP2 DUP2 PUSH2 0x4EB ADD MSTORE DUP2 DUP2 PUSH2 0x665 ADD MSTORE PUSH2 0x108A ADD MSTORE PUSH1 0x0 DUP2 DUP2 PUSH2 0x4C5 ADD MSTORE DUP2 DUP2 PUSH2 0x53B ADD MSTORE DUP2 DUP2 PUSH2 0xCC9 ADD MSTORE DUP2 DUP2 PUSH2 0x127F ADD MSTORE PUSH2 0x1325 ADD MSTORE PUSH1 0x0 DUP2 DUP2 PUSH2 0x1E3 ADD MSTORE DUP2 DUP2 PUSH2 0x49F ADD MSTORE DUP2 DUP2 PUSH2 0xEE3 ADD MSTORE PUSH2 0xF60 ADD MSTORE PUSH1 0x0 DUP2 DUP2 PUSH2 0x2D9 ADD MSTORE DUP2 DUP2 PUSH2 0x479 ADD MSTORE DUP2 DUP2 PUSH2 0xEC2 ADD MSTORE DUP2 DUP2 PUSH2 0xF0A ADD MSTORE DUP2 DUP2 PUSH2 0xF3F ADD MSTORE PUSH2 0xFA3 ADD MSTORE PUSH1 0x0 DUP2 DUP2 PUSH2 0x382 ADD MSTORE DUP2 DUP2 PUSH2 0x453 ADD MSTORE DUP2 DUP2 PUSH2 0x1154 ADD MSTORE DUP2 DUP2 PUSH2 0x1424 ADD MSTORE PUSH2 0x14F4 ADD MSTORE PUSH1 0x0 DUP2 DUP2 PUSH2 0x42B ADD MSTORE DUP2 DUP2 PUSH2 0x631 ADD MSTORE DUP2 DUP2 PUSH2 0x88F ADD MSTORE PUSH2 0x9FC ADD MSTORE PUSH1 0x0 DUP2 DUP2 PUSH2 0x2A5 ADD MSTORE DUP2 DUP2 PUSH2 0x405 ADD MSTORE PUSH2 0x9D6 ADD MSTORE PUSH1 0x0 DUP2 DUP2 PUSH2 0x271 ADD MSTORE DUP2 DUP2 PUSH2 0x3E2 ADD MSTORE DUP2 DUP2 PUSH2 0x9B0 ADD MSTORE PUSH2 0x112E ADD MSTORE PUSH2 0x1A52 PUSH1 0x0 RETURN INVALID PUSH1 0x80 PUSH1 0x40 MSTORE PUSH1 0x4 CALLDATASIZE LT PUSH2 0x14F JUMPI PUSH1 0x0 CALLDATALOAD PUSH1 0xE0 SHR DUP1 PUSH4 0x9C8F9F23 GT PUSH2 0xB6 JUMPI DUP1 PUSH4 0xCAD0B8DB GT PUSH2 0x6F JUMPI DUP1 PUSH4 0xCAD0B8DB EQ PUSH2 0x55D JUMPI DUP1 PUSH4 0xCB3CA049 EQ PUSH2 0x573 JUMPI DUP1 PUSH4 0xD3E89483 EQ PUSH2 0x589 JUMPI DUP1 PUSH4 0xD4CE8942 EQ PUSH2 0x61F JUMPI DUP1 PUSH4 0xD78D42D5 EQ PUSH2 0x653 JUMPI DUP1 PUSH4 0xE8078D94 EQ PUSH2 0x687 JUMPI PUSH1 0x0 DUP1 REVERT JUMPDEST DUP1 PUSH4 0x9C8F9F23 EQ PUSH2 0x350 JUMPI DUP1 PUSH4 0xA4B137F7 EQ PUSH2 0x370 JUMPI DUP1 PUSH4 0xA6159913 EQ PUSH2 0x3A4 JUMPI DUP1 PUSH4 0xAFA5DE48 EQ PUSH2 0x3B9 JUMPI DUP1 PUSH4 0xC3F909D4 EQ PUSH2 0x3CC JUMPI DUP1 PUSH4 0xC87BED70 EQ PUSH2 0x529 JUMPI PUSH1 0x0 DUP1 REVERT JUMPDEST DUP1 PUSH4 0x4A643499 GT PUSH2 0x108 JUMPI DUP1 PUSH4 0x4A643499 EQ PUSH2 0x25F JUMPI DUP1 PUSH4 0x89E8EB47 EQ PUSH2 0x293 JUMPI DUP1 PUSH4 0x8AA9AA54 EQ PUSH2 0x2C7 JUMPI DUP1 PUSH4 0x8DA5CB5B EQ PUSH2 0x2FB JUMPI DUP1 PUSH4 0x975E900E EQ PUSH2 0x31B JUMPI DUP1 PUSH4 0x988F13A5 EQ PUSH2 0x330 JUMPI PUSH1 0x0 DUP1 REVERT JUMPDEST DUP1 PUSH4 0xB65092D EQ PUSH2 0x15B JUMPI DUP1 PUSH4 0x102D6146 EQ PUSH2 0x19B JUMPI DUP1 PUSH4 0x15770F92 EQ PUSH2 0x1BB JUMPI DUP1 PUSH4 0x1668F464 EQ PUSH2 0x1D1 JUMPI DUP1 PUSH4 0x1709A61B EQ PUSH2 0x205 JUMPI DUP1 PUSH4 0x28BFF9DB EQ PUSH2 0x23D JUMPI PUSH1 0x0 DUP1 REVERT JUMPDEST CALLDATASIZE PUSH2 0x156 JUMPI STOP JUMPDEST PUSH1 0x0 DUP1 REVERT JUMPDEST CALLVALUE DUP1 ISZERO PUSH2 0x167 JUMPI PUSH1 0x0 DUP1 REVERT JUMPDEST POP PUSH2 0x188 PUSH2 0x176 CALLDATASIZE PUSH1 0x4 PUSH2 0x17F9 JUMP JUMPDEST PUSH1 0x3 PUSH1 0x20 MSTORE PUSH1 0x0 SWAP1 DUP2 MSTORE PUSH1 0x40 SWAP1 KECCAK256 SLOAD DUP2 JUMP JUMPDEST PUSH1 0x40 MLOAD SWAP1 DUP2 MSTORE PUSH1 0x20 ADD JUMPDEST PUSH1 0x40 MLOAD DUP1 SWAP2 SUB SWAP1 RETURN JUMPDEST CALLVALUE DUP1 ISZERO PUSH2 0x1A7 JUMPI PUSH1 0x0 DUP1 REVERT JUMPDEST POP PUSH2 0x188 PUSH2 0x1B6 CALLDATASIZE PUSH1 0x4 PUSH2 0x1829 JUMP JUMPDEST PUSH2 0x68F JUMP JUMPDEST CALLVALUE DUP1 ISZERO PUSH2 0x1C7 JUMPI PUSH1 0x0 DUP1 REVERT JUMPDEST POP PUSH2 0x188 PUSH1 0x2 SLOAD DUP2 JUMP JUMPDEST CALLVALUE DUP1 ISZERO PUSH2 0x1DD JUMPI PUSH1 0x0 DUP1 REVERT JUMPDEST POP PUSH2 0x188 PUSH32 0x0 DUP2 JUMP JUMPDEST CALLVALUE DUP1 ISZERO PUSH2 0x211 JUMPI PUSH1 0x0 DUP1 REVERT JUMPDEST POP PUSH1 0x1 SLOAD PUSH2 0x225 SWAP1 PUSH1 0x1 PUSH1 0x1 PUSH1 0xA0 SHL SUB AND DUP2 JUMP JUMPDEST PUSH1 0x40 MLOAD PUSH1 0x1 PUSH1 0x1 PUSH1 0xA0 SHL SUB SWAP1 SWAP2 AND DUP2 MSTORE PUSH1 0x20 ADD PUSH2 0x192 JUMP JUMPDEST CALLVALUE DUP1 ISZERO PUSH2 0x249 JUMPI PUSH1 0x0 DUP1 REVERT JUMPDEST POP PUSH2 0x25D PUSH2 0x258 CALLDATASIZE PUSH1 0x4 PUSH2 0x17F9 JUMP JUMPDEST PUSH2 0x6D5 JUMP JUMPDEST STOP JUMPDEST CALLVALUE DUP1 ISZERO PUSH2 0x26B JUMPI PUSH1 0x0 DUP1 REVERT JUMPDEST POP PUSH2 0x188 PUSH32 0x0 DUP2 JUMP JUMPDEST CALLVALUE DUP1 ISZERO PUSH2 0x29F JUMPI PUSH1 0x0 DUP1 REVERT JUMPDEST POP PUSH2 0x188 PUSH32 0x0 DUP2 JUMP JUMPDEST CALLVALUE DUP1 ISZERO PUSH2 0x2D3 JUMPI PUSH1 0x0 DUP1 REVERT JUMPDEST POP PUSH2 0x188 PUSH32 0x0 DUP2 JUMP JUMPDEST CALLVALUE DUP1 ISZERO PUSH2 0x307 JUMPI PUSH1 0x0 DUP1 REVERT JUMPDEST POP PUSH1 0x0 SLOAD PUSH2 0x225 SWAP1 PUSH1 0x1 PUSH1 0x1 PUSH1 0xA0 SHL SUB AND DUP2 JUMP JUMPDEST CALLVALUE DUP1 ISZERO PUSH2 0x327 JUMPI PUSH1 0x0 DUP1 REVERT JUMPDEST POP PUSH2 0x188 PUSH2 0x774 JUMP JUMPDEST CALLVALUE DUP1 ISZERO PUSH2 0x33C JUMPI PUSH1 0x0 DUP1 REVERT JUMPDEST POP PUSH2 0x25D PUSH2 0x34B CALLDATASIZE PUSH1 0x4 PUSH2 0x1894 JUMP JUMPDEST PUSH2 0x7A7 JUMP JUMPDEST CALLVALUE DUP1 ISZERO PUSH2 0x35C JUMPI PUSH1 0x0 DUP1 REVERT JUMPDEST POP PUSH2 0x25D PUSH2 0x36B CALLDATASIZE PUSH1 0x4 PUSH2 0x18FE JUMP JUMPDEST PUSH2 0xC7F JUMP JUMPDEST CALLVALUE DUP1 ISZERO PUSH2 0x37C JUMPI PUSH1 0x0 DUP1 REVERT JUMPDEST POP PUSH2 0x188 PUSH32 0x0 DUP2 JUMP JUMPDEST CALLVALUE DUP1 ISZERO PUSH2 0x3B0 JUMPI PUSH1 0x0 DUP1 REVERT JUMPDEST POP PUSH2 0x188 PUSH2 0xEBE JUMP JUMPDEST PUSH2 0x25D PUSH2 0x3C7 CALLDATASIZE PUSH1 0x4 PUSH2 0x1917 JUMP JUMPDEST PUSH2 0xFCE JUMP JUMPDEST CALLVALUE DUP1 ISZERO PUSH2 0x3D8 JUMPI PUSH1 0x0 DUP1 REVERT JUMPDEST POP PUSH1 0x1 SLOAD PUSH1 0x40 DUP1 MLOAD PUSH32 0x0 DUP2 MSTORE PUSH32 0x0 PUSH1 0x20 DUP3 ADD MSTORE PUSH32 0x0 SWAP2 DUP2 ADD SWAP2 SWAP1 SWAP2 MSTORE PUSH32 0x0 PUSH1 0x60 DUP3 ADD MSTORE PUSH32 0x0 PUSH1 0x80 DUP3 ADD MSTORE PUSH32 0x0 PUSH1 0xA0 DUP3 ADD MSTORE PUSH32 0x0 PUSH1 0xC0 DUP3 ADD MSTORE PUSH32 0x0 PUSH1 0xE0 DUP3 ADD MSTORE PUSH1 0x1 PUSH1 0x1 PUSH1 0xA0 SHL SUB SWAP1 SWAP2 AND PUSH2 0x100 DUP3 ADD MSTORE PUSH2 0x120 ADD PUSH2 0x192 JUMP JUMPDEST CALLVALUE DUP1 ISZERO PUSH2 0x535 JUMPI PUSH1 0x0 DUP1 REVERT JUMPDEST POP PUSH2 0x188 PUSH32 0x0 DUP2 JUMP JUMPDEST CALLVALUE DUP1 ISZERO PUSH2 0x569 JUMPI PUSH1 0x0 DUP1 REVERT JUMPDEST POP PUSH2 0x188 PUSH1 0x5 SLOAD DUP2 JUMP JUMPDEST CALLVALUE DUP1 ISZERO PUSH2 0x57F JUMPI PUSH1 0x0 DUP1 REVERT JUMPDEST POP PUSH2 0x188 PUSH1 0x4 SLOAD DUP2 JUMP JUMPDEST CALLVALUE DUP1 ISZERO PUSH2 0x595 JUMPI PUSH1 0x0 DUP1 REVERT JUMPDEST POP PUSH2 0x5E6 PUSH2 0x5A4 CALLDATASIZE PUSH1 0x4 PUSH2 0x18FE JUMP JUMPDEST PUSH1 0x6 PUSH1 0x20 MSTORE PUSH1 0x0 SWAP1 DUP2 MSTORE PUSH1 0x40 SWAP1 KECCAK256 DUP1 SLOAD PUSH1 0x1 DUP3 ADD SLOAD PUSH1 0x2 DUP4 ADD SLOAD PUSH1 0x3 DUP5 ADD SLOAD PUSH1 0x4 DUP6 ADD SLOAD PUSH1 0x5 SWAP1 SWAP6 ADD SLOAD PUSH1 0x1 PUSH1 0x1 PUSH1 0xA0 SHL SUB SWAP1 SWAP5 AND SWAP5 SWAP3 SWAP4 SWAP2 SWAP3 SWAP1 SWAP2 PUSH1 0xFF AND DUP7 JUMP JUMPDEST PUSH1 0x40 DUP1 MLOAD PUSH1 0x1 PUSH1 0x1 PUSH1 0xA0 SHL SUB SWAP1 SWAP8 AND DUP8 MSTORE PUSH1 0x20 DUP8 ADD SWAP6 SWAP1 SWAP6 MSTORE SWAP4 DUP6 ADD SWAP3 SWAP1 SWAP3 MSTORE PUSH1 0x60 DUP5 ADD MSTORE PUSH1 0x80 DUP4 ADD MSTORE ISZERO ISZERO PUSH1 0xA0 DUP3 ADD MSTORE PUSH1 0xC0 ADD PUSH2 0x192 JUMP JUMPDEST CALLVALUE DUP1 ISZERO PUSH2 0x62B JUMPI PUSH1 0x0 DUP1 REVERT JUMPDEST POP PUSH2 0x188 PUSH32 0x0 DUP2 JUMP JUMPDEST CALLVALUE DUP1 ISZERO PUSH2 0x65F JUMPI PUSH1 0x0 DUP1 REVERT JUMPDEST POP PUSH2 0x188 PUSH32 0x0 DUP2 JUMP JUMPDEST PUSH2 0x25D PUSH2 0x1549 JUMP JUMPDEST PUSH1 0x0 DUP1 PUSH2 0x69A PUSH2 0xEBE JUMP JUMPDEST SWAP1 POP PUSH4 0x5F5E100 PUSH2 0x6AD DUP3 PUSH2 0x2710 PUSH2 0x198E JUMP JUMPDEST PUSH2 0x6B7 DUP6 DUP8 PUSH2 0x19A1 JUMP JUMPDEST PUSH2 0x6C1 SWAP2 SWAP1 PUSH2 0x19A1 JUMP JUMPDEST PUSH2 0x6CB SWAP2 SWAP1 PUSH2 0x19B8 JUMP JUMPDEST SWAP2 POP POP JUMPDEST SWAP3 SWAP2 POP POP JUMP JUMPDEST PUSH1 0x0 SLOAD PUSH1 0x1 PUSH1 0x1 PUSH1 0xA0 SHL SUB AND CALLER EQ PUSH2 0x720 JUMPI PUSH1 0x40 MLOAD PUSH3 0x461BCD PUSH1 0xE5 SHL DUP2 MSTORE PUSH1 0x20 PUSH1 0x4 DUP3 ADD MSTORE PUSH1 0x9 PUSH1 0x24 DUP3 ADD MSTORE PUSH9 0x2737BA1037BBB732B9 PUSH1 0xB9 SHL PUSH1 0x44 DUP3 ADD MSTORE PUSH1 0x64 ADD JUMPDEST PUSH1 0x40 MLOAD DUP1 SWAP2 SUB SWAP1 REVERT JUMPDEST PUSH1 0x1 DUP1 SLOAD PUSH1 0x1 PUSH1 0x1 PUSH1 0xA0 SHL SUB NOT AND PUSH1 0x1 PUSH1 0x1 PUSH1 0xA0 SHL SUB DUP4 AND SWAP1 DUP2 OR SWAP1 SWAP2 SSTORE PUSH1 0x40 MLOAD SWAP1 DUP2 MSTORE PUSH32 0x9787AD339C4BC9E4B4743A2E50DA52EE5B40E7096843872095B8280A50152246 SWAP1 PUSH1 0x20 ADD PUSH1 0x40 MLOAD DUP1 SWAP2 SUB SWAP1 LOG1 POP JUMP JUMPDEST PUSH1 0x0 PUSH1 0x2 SLOAD PUSH1 0x0 SUB PUSH2 0x786 JUMPI POP PUSH1 0x0 SWAP1 JUMP JUMPDEST PUSH1 0x2 SLOAD PUSH1 0x4 SLOAD PUSH2 0x798 SWAP1 PUSH2 0x2710 PUSH2 0x19A1 JUMP JUMPDEST PUSH2 0x7A2 SWAP2 SWAP1 PUSH2 0x19B8 JUMP JUMPDEST SWAP1 POP SWAP1 JUMP JUMPDEST PUSH1 0x0 DUP7 DUP2 MSTORE PUSH1 0x6 PUSH1 0x20 MSTORE PUSH1 0x40 SWAP1 KECCAK256 DUP1 SLOAD PUSH1 0x1 PUSH1 0x1 PUSH1 0xA0 SHL SUB AND CALLER EQ PUSH2 0x7FA JUMPI PUSH1 0x40 MLOAD PUSH3 0x461BCD PUSH1 0xE5 SHL DUP2 MSTORE PUSH1 0x20 PUSH1 0x4 DUP3 ADD MSTORE PUSH1 0x9 PUSH1 0x24 DUP3 ADD MSTORE PUSH9 0x2727AA2FA12AACA2A9 PUSH1 0xB9 SHL PUSH1 0x44 DUP3 ADD MSTORE PUSH1 0x64 ADD PUSH2 0x717 JUMP JUMPDEST PUSH1 0x5 DUP2 ADD SLOAD PUSH1 0xFF AND ISZERO PUSH2 0x839 JUMPI PUSH1 0x40 MLOAD PUSH3 0x461BCD PUSH1 0xE5 SHL DUP2 MSTORE PUSH1 0x20 PUSH1 0x4 DUP3 ADD MSTORE PUSH1 0x7 PUSH1 0x24 DUP3 ADD MSTORE PUSH7 0x10D31052535151 PUSH1 0xCA SHL PUSH1 0x44 DUP3 ADD MSTORE PUSH1 0x64 ADD PUSH2 0x717 JUMP JUMPDEST DUP1 PUSH1 0x3 ADD SLOAD DUP7 LT ISZERO DUP1 ISZERO PUSH2 0x851 JUMPI POP DUP1 PUSH1 0x4 ADD SLOAD DUP7 GT ISZERO JUMPDEST PUSH2 0x88A JUMPI PUSH1 0x40 MLOAD PUSH3 0x461BCD PUSH1 0xE5 SHL DUP2 MSTORE PUSH1 0x20 PUSH1 0x4 DUP3 ADD MSTORE PUSH1 0xA PUSH1 0x24 DUP3 ADD MSTORE PUSH10 0x4F55545F57494E444F57 PUSH1 0xB0 SHL PUSH1 0x44 DUP3 ADD MSTORE PUSH1 0x64 ADD PUSH2 0x717 JUMP JUMPDEST PUSH2 0x8B4 PUSH32 0x0 DUP8 PUSH2 0x198E JUMP JUMPDEST DUP6 LT ISZERO PUSH2 0x8ED JUMPI PUSH1 0x40 MLOAD PUSH3 0x461BCD PUSH1 0xE5 SHL DUP2 MSTORE PUSH1 0x20 PUSH1 0x4 DUP3 ADD MSTORE PUSH1 0x7 PUSH1 0x24 DUP3 ADD MSTORE PUSH7 0x2120A22FA92AA7 PUSH1 0xC9 SHL PUSH1 0x44 DUP3 ADD MSTORE PUSH1 0x64 ADD PUSH2 0x717 JUMP JUMPDEST DUP5 TIMESTAMP LT ISZERO PUSH2 0x928 JUMPI PUSH1 0x40 MLOAD PUSH3 0x461BCD PUSH1 0xE5 SHL DUP2 MSTORE PUSH1 0x20 PUSH1 0x4 DUP3 ADD MSTORE PUSH1 0x8 PUSH1 0x24 DUP3 ADD MSTORE PUSH8 0x15D0525517D15391 PUSH1 0xC2 SHL PUSH1 0x44 DUP3 ADD MSTORE PUSH1 0x64 ADD PUSH2 0x717 JUMP JUMPDEST PUSH3 0x15180 PUSH2 0x936 DUP6 TIMESTAMP PUSH2 0x19DA JUMP JUMPDEST GT ISZERO PUSH2 0x971 JUMPI PUSH1 0x40 MLOAD PUSH3 0x461BCD PUSH1 0xE5 SHL DUP2 MSTORE PUSH1 0x20 PUSH1 0x4 DUP3 ADD MSTORE PUSH1 0xA PUSH1 0x24 DUP3 ADD MSTORE PUSH10 0x5354414C455F54524947 PUSH1 0xB0 SHL PUSH1 0x44 DUP3 ADD MSTORE PUSH1 0x64 ADD PUSH2 0x717 JUMP JUMPDEST PUSH1 0x40 DUP1 MLOAD PUSH14 0x4644433A545249474745525F5631 PUSH1 0x90 SHL PUSH1 0x20 DUP1 DUP4 ADD SWAP2 SWAP1 SWAP2 MSTORE ADDRESS PUSH1 0x60 SHL PUSH12 0xFFFFFFFFFFFFFFFFFFFFFFFF NOT AND PUSH1 0x2E DUP4 ADD MSTORE CHAINID PUSH1 0x42 DUP4 ADD MSTORE PUSH32 0x0 PUSH1 0x62 DUP4 ADD MSTORE PUSH32 0x0 PUSH1 0x82 DUP4 ADD MSTORE PUSH32 0x0 PUSH1 0xA2 DUP4 ADD MSTORE PUSH1 0xC2 DUP3 ADD DUP10 SWAP1 MSTORE PUSH1 0xE2 DUP3 ADD DUP9 SWAP1 MSTORE PUSH1 0x1 PUSH1 0xF8 SHL PUSH2 0x102 DUP4 ADD MSTORE PUSH2 0x103 DUP1 DUP4 ADD DUP9 SWAP1 MSTORE DUP4 MLOAD DUP1 DUP5 SUB SWAP1 SWAP2 ADD DUP2 MSTORE PUSH2 0x123 DUP4 ADD DUP5 MSTORE DUP1 MLOAD SWAP1 DUP3 ADD KECCAK256 PUSH32 0x19457468657265756D205369676E6564204D6573736167653A0A333200000000 PUSH2 0x143 DUP5 ADD MSTORE PUSH2 0x15F DUP1 DUP5 ADD SWAP2 SWAP1 SWAP2 MSTORE DUP4 MLOAD DUP1 DUP5 SUB SWAP1 SWAP2 ADD DUP2 MSTORE PUSH2 0x17F SWAP1 SWAP3 ADD SWAP1 SWAP3 MSTORE DUP1 MLOAD SWAP2 ADD KECCAK256 PUSH1 0x0 PUSH2 0xAE4 DUP3 DUP7 DUP7 DUP1 DUP1 PUSH1 0x1F ADD PUSH1 0x20 DUP1 SWAP2 DIV MUL PUSH1 0x20 ADD PUSH1 0x40 MLOAD SWAP1 DUP2 ADD PUSH1 0x40 MSTORE DUP1 SWAP4 SWAP3 SWAP2 SWAP1 DUP2 DUP2 MSTORE PUSH1 0x20 ADD DUP4 DUP4 DUP1 DUP3 DUP5 CALLDATACOPY PUSH1 0x0 SWAP3 ADD SWAP2 SWAP1 SWAP2 MSTORE POP PUSH2 0x15F6 SWAP3 POP POP POP JUMP JUMPDEST PUSH1 0x1 SLOAD SWAP1 SWAP2 POP PUSH1 0x1 PUSH1 0x1 PUSH1 0xA0 SHL SUB DUP1 DUP4 AND SWAP2 AND EQ PUSH2 0xB2E JUMPI PUSH1 0x40 MLOAD PUSH3 0x461BCD PUSH1 0xE5 SHL DUP2 MSTORE PUSH1 0x20 PUSH1 0x4 DUP3 ADD MSTORE PUSH1 0x7 PUSH1 0x24 DUP3 ADD MSTORE PUSH7 0x4241445F534947 PUSH1 0xC8 SHL PUSH1 0x44 DUP3 ADD MSTORE PUSH1 0x64 ADD PUSH2 0x717 JUMP JUMPDEST PUSH1 0x5 DUP4 ADD DUP1 SLOAD PUSH1 0xFF NOT AND PUSH1 0x1 SWAP1 DUP2 OR SWAP1 SWAP2 SSTORE DUP4 ADD SLOAD PUSH1 0x4 DUP1 SLOAD PUSH1 0x0 SWAP1 PUSH2 0xB55 SWAP1 DUP5 SWAP1 PUSH2 0x19DA JUMP JUMPDEST SWAP1 SWAP2 SSTORE POP POP PUSH1 0x1 DUP4 ADD SLOAD SELFBALANCE LT ISZERO PUSH2 0xB9A JUMPI PUSH1 0x40 MLOAD PUSH3 0x461BCD PUSH1 0xE5 SHL DUP2 MSTORE PUSH1 0x20 PUSH1 0x4 DUP3 ADD MSTORE PUSH1 0x9 PUSH1 0x24 DUP3 ADD MSTORE PUSH9 0x125394D3D315915395 PUSH1 0xBA SHL PUSH1 0x44 DUP3 ADD MSTORE PUSH1 0x64 ADD PUSH2 0x717 JUMP JUMPDEST DUP3 SLOAD PUSH1 0x1 DUP5 ADD SLOAD PUSH1 0x40 MLOAD PUSH1 0x0 SWAP3 PUSH1 0x1 PUSH1 0x1 PUSH1 0xA0 SHL SUB AND SWAP2 SWAP1 DUP4 DUP2 DUP2 DUP2 DUP6 DUP8 GAS CALL SWAP3 POP POP POP RETURNDATASIZE DUP1 PUSH1 0x0 DUP2 EQ PUSH2 0xBEA JUMPI PUSH1 0x40 MLOAD SWAP2 POP PUSH1 0x1F NOT PUSH1 0x3F RETURNDATASIZE ADD AND DUP3 ADD PUSH1 0x40 MSTORE RETURNDATASIZE DUP3 MSTORE RETURNDATASIZE PUSH1 0x0 PUSH1 0x20 DUP5 ADD RETURNDATACOPY PUSH2 0xBEF JUMP JUMPDEST PUSH1 0x60 SWAP2 POP JUMPDEST POP POP SWAP1 POP DUP1 PUSH2 0xC2B JUMPI PUSH1 0x40 MLOAD PUSH3 0x461BCD PUSH1 0xE5 SHL DUP2 MSTORE PUSH1 0x20 PUSH1 0x4 DUP3 ADD MSTORE PUSH1 0x8 PUSH1 0x24 DUP3 ADD MSTORE PUSH8 0x14105657D1905253 PUSH1 0xC2 SHL PUSH1 0x44 DUP3 ADD MSTORE PUSH1 0x64 ADD PUSH2 0x717 JUMP JUMPDEST DUP4 SLOAD PUSH1 0x1 DUP6 ADD SLOAD PUSH1 0x40 MLOAD SWAP1 DUP2 MSTORE PUSH1 0x1 PUSH1 0x1 PUSH1 0xA0 SHL SUB SWAP1 SWAP2 AND SWAP1 DUP12 SWAP1 PUSH32 0x4EC90E965519D92681267467F775ADA5BD214AA92C0DC93D90A5E880CE9ED026 SWAP1 PUSH1 0x20 ADD PUSH1 0x40 MLOAD DUP1 SWAP2 SUB SWAP1 LOG3 POP POP POP POP POP POP POP POP POP POP JUMP JUMPDEST CALLER PUSH1 0x0 SWAP1 DUP2 MSTORE PUSH1 0x3 PUSH1 0x20 MSTORE PUSH1 0x40 SWAP1 KECCAK256 SLOAD DUP2 DUP2 LT ISZERO PUSH2 0xCC5 JUMPI PUSH1 0x40 MLOAD PUSH3 0x461BCD PUSH1 0xE5 SHL DUP2 MSTORE PUSH1 0x20 PUSH1 0x4 DUP3 ADD MSTORE PUSH1 0x3 PUSH1 0x24 DUP3 ADD MSTORE PUSH3 0x109053 PUSH1 0xEA SHL PUSH1 0x44 DUP3 ADD MSTORE PUSH1 0x64 ADD PUSH2 0x717 JUMP JUMPDEST PUSH1 0x0 PUSH32 0x0 PUSH1 0x4 SLOAD PUSH2 0x2710 PUSH2 0xCF8 SWAP2 SWAP1 PUSH2 0x19A1 JUMP JUMPDEST PUSH2 0xD02 SWAP2 SWAP1 PUSH2 0x19B8 JUMP JUMPDEST SWAP1 POP DUP1 PUSH1 0x2 SLOAD LT ISZERO PUSH2 0xD4A JUMPI PUSH1 0x40 MLOAD PUSH3 0x461BCD PUSH1 0xE5 SHL DUP2 MSTORE PUSH1 0x20 PUSH1 0x4 DUP3 ADD MSTORE PUSH1 0x11 PUSH1 0x24 DUP3 ADD MSTORE PUSH17 0x125394D551919250D251539517D413D3D3 PUSH1 0x7A SHL PUSH1 0x44 DUP3 ADD MSTORE PUSH1 0x64 ADD PUSH2 0x717 JUMP JUMPDEST PUSH1 0x0 DUP2 PUSH1 0x2 SLOAD GT PUSH2 0xD5C JUMPI PUSH1 0x0 PUSH2 0xD6A JUMP JUMPDEST DUP2 PUSH1 0x2 SLOAD PUSH2 0xD6A SWAP2 SWAP1 PUSH2 0x19DA JUMP JUMPDEST SWAP1 POP PUSH1 0x0 PUSH1 0x2 SLOAD DUP3 DUP6 PUSH2 0xD7D SWAP2 SWAP1 PUSH2 0x19A1 JUMP JUMPDEST PUSH2 0xD87 SWAP2 SWAP1 PUSH2 0x19B8 JUMP JUMPDEST SWAP1 POP DUP1 DUP6 GT ISZERO PUSH2 0xDCA JUMPI PUSH1 0x40 MLOAD PUSH3 0x461BCD PUSH1 0xE5 SHL DUP2 MSTORE PUSH1 0x20 PUSH1 0x4 DUP3 ADD MSTORE PUSH1 0xE PUSH1 0x24 DUP3 ADD MSTORE PUSH14 0x15D2551211149055D7D312535255 PUSH1 0x92 SHL PUSH1 0x44 DUP3 ADD MSTORE PUSH1 0x64 ADD PUSH2 0x717 JUMP JUMPDEST PUSH2 0xDD4 DUP6 DUP6 PUSH2 0x19DA JUMP JUMPDEST CALLER PUSH1 0x0 SWAP1 DUP2 MSTORE PUSH1 0x3 PUSH1 0x20 MSTORE PUSH1 0x40 DUP2 KECCAK256 SWAP2 SWAP1 SWAP2 SSTORE PUSH1 0x2 DUP1 SLOAD DUP8 SWAP3 SWAP1 PUSH2 0xDF9 SWAP1 DUP5 SWAP1 PUSH2 0x19DA JUMP JUMPDEST SWAP1 SWAP2 SSTORE POP POP PUSH1 0x40 MLOAD PUSH1 0x0 SWAP1 CALLER SWAP1 DUP8 SWAP1 DUP4 DUP2 DUP2 DUP2 DUP6 DUP8 GAS CALL SWAP3 POP POP POP RETURNDATASIZE DUP1 PUSH1 0x0 DUP2 EQ PUSH2 0xE40 JUMPI PUSH1 0x40 MLOAD SWAP2 POP PUSH1 0x1F NOT PUSH1 0x3F RETURNDATASIZE ADD AND DUP3 ADD PUSH1 0x40 MSTORE RETURNDATASIZE DUP3 MSTORE RETURNDATASIZE PUSH1 0x0 PUSH1 0x20 DUP5 ADD RETURNDATACOPY PUSH2 0xE45 JUMP JUMPDEST PUSH1 0x60 SWAP2 POP JUMPDEST POP POP SWAP1 POP DUP1 PUSH2 0xE81 JUMPI PUSH1 0x40 MLOAD PUSH3 0x461BCD PUSH1 0xE5 SHL DUP2 MSTORE PUSH1 0x20 PUSH1 0x4 DUP3 ADD MSTORE PUSH1 0x8 PUSH1 0x24 DUP3 ADD MSTORE PUSH8 0x2A2920A729A322A9 PUSH1 0xC1 SHL PUSH1 0x44 DUP3 ADD MSTORE PUSH1 0x64 ADD PUSH2 0x717 JUMP JUMPDEST PUSH1 0x40 MLOAD DUP7 DUP2 MSTORE CALLER SWAP1 PUSH32 0xC2C3F06E49B9F15E7B4AF9055E183B0D73362E033AD82A07DEC9BF9840171719 SWAP1 PUSH1 0x20 ADD PUSH1 0x40 MLOAD DUP1 SWAP2 SUB SWAP1 LOG2 POP POP POP POP POP POP JUMP JUMPDEST PUSH1 0x0 PUSH32 0x0 PUSH32 0x0 GT PUSH2 0xF2C JUMPI POP PUSH32 0x0 SWAP1 JUMP JUMPDEST PUSH1 0x0 PUSH2 0xF36 PUSH2 0x774 JUMP JUMPDEST SWAP1 POP PUSH1 0x0 PUSH2 0xF84 PUSH32 0x0 PUSH32 0x0 PUSH2 0x19DA JUMP JUMPDEST SWAP1 POP PUSH2 0x2710 PUSH2 0xF93 DUP4 DUP4 PUSH2 0x19A1 JUMP JUMPDEST PUSH2 0xF9D SWAP2 SWAP1 PUSH2 0x19B8 JUMP JUMPDEST PUSH2 0xFC7 SWAP1 PUSH32 0x0 PUSH2 0x198E JUMP JUMPDEST SWAP3 POP POP POP SWAP1 JUMP JUMPDEST PUSH1 0x0 DUP6 GT PUSH2 0x1009 JUMPI PUSH1 0x40 MLOAD PUSH3 0x461BCD PUSH1 0xE5 SHL DUP2 MSTORE PUSH1 0x20 PUSH1 0x4 DUP3 ADD MSTORE PUSH1 0x8 PUSH1 0x24 DUP3 ADD MSTORE PUSH8 0x1393D51253D39053 PUSH1 0xC2 SHL PUSH1 0x44 DUP3 ADD MSTORE PUSH1 0x64 ADD PUSH2 0x717 JUMP JUMPDEST PUSH1 0x1 SLOAD PUSH1 0x1 PUSH1 0x1 PUSH1 0xA0 SHL SUB AND PUSH2 0x104D JUMPI PUSH1 0x40 MLOAD PUSH3 0x461BCD PUSH1 0xE5 SHL DUP2 MSTORE PUSH1 0x20 PUSH1 0x4 DUP3 ADD MSTORE PUSH1 0x9 PUSH1 0x24 DUP3 ADD MSTORE PUSH9 0x2727AFA9A4A3A722A9 PUSH1 0xB9 SHL PUSH1 0x44 DUP3 ADD MSTORE PUSH1 0x64 ADD PUSH2 0x717 JUMP JUMPDEST DUP3 TIMESTAMP LT ISZERO PUSH2 0x1088 JUMPI PUSH1 0x40 MLOAD PUSH3 0x461BCD PUSH1 0xE5 SHL DUP2 MSTORE PUSH1 0x20 PUSH1 0x4 DUP3 ADD MSTORE PUSH1 0x8 PUSH1 0x24 DUP3 ADD MSTORE PUSH8 0x4241445F54494D45 PUSH1 0xC0 SHL PUSH1 0x44 DUP3 ADD MSTORE PUSH1 0x64 ADD PUSH2 0x717 JUMP JUMPDEST PUSH32 0x0 PUSH2 0x10B3 DUP5 TIMESTAMP PUSH2 0x19DA JUMP JUMPDEST GT ISZERO PUSH2 0x10EB JUMPI PUSH1 0x40 MLOAD PUSH3 0x461BCD PUSH1 0xE5 SHL DUP2 MSTORE PUSH1 0x20 PUSH1 0x4 DUP3 ADD MSTORE PUSH1 0x7 PUSH1 0x24 DUP3 ADD MSTORE PUSH7 0x5354414C455F5 PUSH1 0xCC SHL PUSH1 0x44 DUP3 ADD MSTORE PUSH1 0x64 ADD PUSH2 0x717 JUMP JUMPDEST PUSH1 0x0 PUSH2 0x11ED DUP6 DUP6 PUSH1 0x40 DUP1 MLOAD PUSH11 0x4644433A50524F425F5631 PUSH1 0xA8 SHL PUSH1 0x20 DUP1 DUP4 ADD SWAP2 SWAP1 SWAP2 MSTORE ADDRESS PUSH1 0x60 SHL PUSH12 0xFFFFFFFFFFFFFFFFFFFFFFFF NOT AND PUSH1 0x2B DUP4 ADD MSTORE CHAINID PUSH1 0x3F DUP4 ADD MSTORE PUSH32 0x0 PUSH1 0x5F DUP4 ADD MSTORE PUSH32 0x0 PUSH1 0x7F DUP4 ADD MSTORE PUSH1 0x9F DUP3 ADD DUP6 SWAP1 MSTORE PUSH1 0xBF DUP1 DUP4 ADD DUP6 SWAP1 MSTORE DUP4 MLOAD DUP1 DUP5 SUB SWAP1 SWAP2 ADD DUP2 MSTORE PUSH1 0xDF DUP4 ADD DUP5 MSTORE DUP1 MLOAD SWAP1 DUP3 ADD KECCAK256 PUSH32 0x19457468657265756D205369676E6564204D6573736167653A0A333200000000 PUSH1 0xFF DUP5 ADD MSTORE PUSH2 0x11B DUP1 DUP5 ADD DUP3 SWAP1 MSTORE DUP5 MLOAD DUP1 DUP6 SUB SWAP1 SWAP2 ADD DUP2 MSTORE PUSH2 0x13B SWAP1 SWAP4 ADD SWAP1 SWAP4 MSTORE DUP2 MLOAD SWAP2 ADD KECCAK256 PUSH1 0x0 SWAP2 SWAP1 PUSH2 0x6CB JUMP JUMPDEST SWAP1 POP PUSH1 0x0 PUSH2 0x1231 DUP3 DUP6 DUP6 DUP1 DUP1 PUSH1 0x1F ADD PUSH1 0x20 DUP1 SWAP2 DIV MUL PUSH1 0x20 ADD PUSH1 0x40 MLOAD SWAP1 DUP2 ADD PUSH1 0x40 MSTORE DUP1 SWAP4 SWAP3 SWAP2 SWAP1 DUP2 DUP2 MSTORE PUSH1 0x20 ADD DUP4 DUP4 DUP1 DUP3 DUP5 CALLDATACOPY PUSH1 0x0 SWAP3 ADD SWAP2 SWAP1 SWAP2 MSTORE POP PUSH2 0x15F6 SWAP3 POP POP POP JUMP JUMPDEST PUSH1 0x1 SLOAD SWAP1 SWAP2 POP PUSH1 0x1 PUSH1 0x1 PUSH1 0xA0 SHL SUB DUP1 DUP4 AND SWAP2 AND EQ PUSH2 0x127B JUMPI PUSH1 0x40 MLOAD PUSH3 0x461BCD PUSH1 0xE5 SHL DUP2 MSTORE PUSH1 0x20 PUSH1 0x4 DUP3 ADD MSTORE PUSH1 0x7 PUSH1 0x24 DUP3 ADD MSTORE PUSH7 0x4241445F534947 PUSH1 0xC8 SHL PUSH1 0x44 DUP3 ADD MSTORE PUSH1 0x64 ADD PUSH2 0x717 JUMP JUMPDEST PUSH1 0x0 PUSH32 0x0 GT PUSH2 0x12D1 JUMPI PUSH1 0x40 MLOAD PUSH3 0x461BCD PUSH1 0xE5 SHL DUP2 MSTORE PUSH1 0x20 PUSH1 0x4 DUP3 ADD MSTORE PUSH1 0x3 PUSH1 0x24 DUP3 ADD MSTORE PUSH3 0x524553 PUSH1 0xE8 SHL PUSH1 0x44 DUP3 ADD MSTORE PUSH1 0x64 ADD PUSH2 0x717 JUMP JUMPDEST PUSH1 0x0 PUSH1 0x2 SLOAD GT PUSH2 0x130C JUMPI PUSH1 0x40 MLOAD PUSH3 0x461BCD PUSH1 0xE5 SHL DUP2 MSTORE PUSH1 0x20 PUSH1 0x4 DUP3 ADD MSTORE PUSH1 0x6 PUSH1 0x24 DUP3 ADD MSTORE PUSH6 0x4E4F5F4C4951 PUSH1 0xD0 SHL PUSH1 0x44 DUP3 ADD MSTORE PUSH1 0x64 ADD PUSH2 0x717 JUMP JUMPDEST PUSH1 0x0 DUP8 PUSH1 0x4 SLOAD PUSH2 0x131C SWAP2 SWAP1 PUSH2 0x198E JUMP JUMPDEST SWAP1 POP PUSH1 0x0 PUSH2 0x2710 PUSH32 0x0 PUSH1 0x2 SLOAD PUSH2 0x1351 SWAP2 SWAP1 PUSH2 0x19A1 JUMP JUMPDEST PUSH2 0x135B SWAP2 SWAP1 PUSH2 0x19B8 JUMP JUMPDEST SWAP1 POP DUP1 DUP3 GT ISZERO PUSH2 0x1398 JUMPI PUSH1 0x40 MLOAD PUSH3 0x461BCD PUSH1 0xE5 SHL DUP2 MSTORE PUSH1 0x20 PUSH1 0x4 DUP3 ADD MSTORE PUSH1 0x8 PUSH1 0x24 DUP3 ADD MSTORE PUSH8 0x4341504143495459 PUSH1 0xC0 SHL PUSH1 0x44 DUP3 ADD MSTORE PUSH1 0x64 ADD PUSH2 0x717 JUMP JUMPDEST PUSH1 0x0 PUSH2 0x13A4 DUP11 DUP11 PUSH2 0x68F JUMP JUMPDEST SWAP1 POP DUP1 CALLVALUE EQ PUSH2 0x13DF JUMPI PUSH1 0x40 MLOAD PUSH3 0x461BCD PUSH1 0xE5 SHL DUP2 MSTORE PUSH1 0x20 PUSH1 0x4 DUP3 ADD MSTORE PUSH1 0x7 PUSH1 0x24 DUP3 ADD MSTORE PUSH7 0x5052454D49554D PUSH1 0xC8 SHL PUSH1 0x44 DUP3 ADD MSTORE PUSH1 0x64 ADD PUSH2 0x717 JUMP JUMPDEST PUSH1 0x5 DUP1 SLOAD PUSH1 0x0 SWAP2 DUP3 PUSH2 0x13F0 DUP4 PUSH2 0x19ED JUMP JUMPDEST SWAP2 SWAP1 POP SSTORE SWAP1 POP PUSH1 0x40 MLOAD DUP1 PUSH1 0xC0 ADD PUSH1 0x40 MSTORE DUP1 CALLER PUSH1 0x1 PUSH1 0x1 PUSH1 0xA0 SHL SUB AND DUP2 MSTORE PUSH1 0x20 ADD DUP13 DUP2 MSTORE PUSH1 0x20 ADD DUP4 DUP2 MSTORE PUSH1 0x20 ADD TIMESTAMP DUP2 MSTORE PUSH1 0x20 ADD PUSH32 0x0 TIMESTAMP PUSH2 0x144E SWAP2 SWAP1 PUSH2 0x198E JUMP JUMPDEST DUP2 MSTORE PUSH1 0x0 PUSH1 0x20 SWAP2 DUP3 ADD DUP2 SWAP1 MSTORE DUP4 DUP2 MSTORE PUSH1 0x6 DUP3 MSTORE PUSH1 0x40 SWAP1 DUP2 SWAP1 KECCAK256 DUP4 MLOAD DUP2 SLOAD PUSH1 0x1 PUSH1 0x1 PUSH1 0xA0 SHL SUB NOT AND PUSH1 0x1 PUSH1 0x1 PUSH1 0xA0 SHL SUB SWAP1 SWAP2 AND OR DUP2 SSTORE SWAP2 DUP4 ADD MLOAD PUSH1 0x1 DUP4 ADD SSTORE DUP3 ADD MLOAD PUSH1 0x2 DUP3 ADD SSTORE PUSH1 0x60 DUP3 ADD MLOAD PUSH1 0x3 DUP3 ADD SSTORE PUSH1 0x80 DUP3 ADD MLOAD PUSH1 0x4 DUP1 DUP4 ADD SWAP2 SWAP1 SWAP2 SSTORE PUSH1 0xA0 SWAP1 SWAP3 ADD MLOAD PUSH1 0x5 SWAP1 SWAP2 ADD DUP1 SLOAD PUSH1 0xFF NOT AND SWAP2 ISZERO ISZERO SWAP2 SWAP1 SWAP2 OR SWAP1 SSTORE DUP5 SWAP1 SSTORE CALLER DUP2 PUSH32 0x769125EA19D73E738071160F34A919829F06D67F3AAC561FC983185169E141C7 DUP14 DUP6 TIMESTAMP PUSH2 0x1519 PUSH32 0x0 DUP3 PUSH2 0x198E JUMP JUMPDEST PUSH1 0x40 DUP1 MLOAD SWAP5 DUP6 MSTORE PUSH1 0x20 DUP6 ADD SWAP4 SWAP1 SWAP4 MSTORE SWAP2 DUP4 ADD MSTORE PUSH1 0x60 DUP3 ADD MSTORE PUSH1 0x80 ADD PUSH1 0x40 MLOAD DUP1 SWAP2 SUB SWAP1 LOG3 POP POP POP POP POP POP POP POP POP POP POP JUMP JUMPDEST PUSH1 0x0 CALLVALUE GT PUSH2 0x1582 JUMPI PUSH1 0x40 MLOAD PUSH3 0x461BCD PUSH1 0xE5 SHL DUP2 MSTORE PUSH1 0x20 PUSH1 0x4 DUP3 ADD MSTORE PUSH1 0x6 PUSH1 0x24 DUP3 ADD MSTORE PUSH6 0x105353D55395 PUSH1 0xD2 SHL PUSH1 0x44 DUP3 ADD MSTORE PUSH1 0x64 ADD PUSH2 0x717 JUMP JUMPDEST CALLER PUSH1 0x0 SWAP1 DUP2 MSTORE PUSH1 0x3 PUSH1 0x20 MSTORE PUSH1 0x40 DUP2 KECCAK256 DUP1 SLOAD CALLVALUE SWAP3 SWAP1 PUSH2 0x15A1 SWAP1 DUP5 SWAP1 PUSH2 0x198E JUMP JUMPDEST SWAP3 POP POP DUP2 SWAP1 SSTORE POP CALLVALUE PUSH1 0x2 PUSH1 0x0 DUP3 DUP3 SLOAD PUSH2 0x15BA SWAP2 SWAP1 PUSH2 0x198E JUMP JUMPDEST SWAP1 SWAP2 SSTORE POP POP PUSH1 0x40 MLOAD CALLVALUE DUP2 MSTORE CALLER SWAP1 PUSH32 0xC17CEA59C2955CB181B03393209566960365771DBBA9DC3D510180E7CB312088 SWAP1 PUSH1 0x20 ADD PUSH1 0x40 MLOAD DUP1 SWAP2 SUB SWAP1 LOG2 JUMP JUMPDEST PUSH1 0x0 DUP1 PUSH1 0x0 DUP1 PUSH2 0x1606 DUP7 DUP7 PUSH2 0x1620 JUMP JUMPDEST SWAP3 POP SWAP3 POP SWAP3 POP PUSH2 0x1616 DUP3 DUP3 PUSH2 0x166D JUMP JUMPDEST POP SWAP1 SWAP5 SWAP4 POP POP POP POP JUMP JUMPDEST PUSH1 0x0 DUP1 PUSH1 0x0 DUP4 MLOAD PUSH1 0x41 SUB PUSH2 0x165A JUMPI PUSH1 0x20 DUP5 ADD MLOAD PUSH1 0x40 DUP6 ADD MLOAD PUSH1 0x60 DUP7 ADD MLOAD PUSH1 0x0 BYTE PUSH2 0x164C DUP9 DUP3 DUP6 DUP6 PUSH2 0x172A JUMP JUMPDEST SWAP6 POP SWAP6 POP SWAP6 POP POP POP POP PUSH2 0x1666 JUMP JUMPDEST POP POP DUP2 MLOAD PUSH1 0x0 SWAP2 POP PUSH1 0x2 SWAP1 JUMPDEST SWAP3 POP SWAP3 POP SWAP3 JUMP JUMPDEST PUSH1 0x0 DUP3 PUSH1 0x3 DUP2 GT ISZERO PUSH2 0x1681 JUMPI PUSH2 0x1681 PUSH2 0x1A06 JUMP JUMPDEST SUB PUSH2 0x168A JUMPI POP POP JUMP JUMPDEST PUSH1 0x1 DUP3 PUSH1 0x3 DUP2 GT ISZERO PUSH2 0x169E JUMPI PUSH2 0x169E PUSH2 0x1A06 JUMP JUMPDEST SUB PUSH2 0x16BC JUMPI PUSH1 0x40 MLOAD PUSH4 0xF645EEDF PUSH1 0xE0 SHL DUP2 MSTORE PUSH1 0x4 ADD PUSH1 0x40 MLOAD DUP1 SWAP2 SUB SWAP1 REVERT JUMPDEST PUSH1 0x2 DUP3 PUSH1 0x3 DUP2 GT ISZERO PUSH2 0x16D0 JUMPI PUSH2 0x16D0 PUSH2 0x1A06 JUMP JUMPDEST SUB PUSH2 0x16F1 JUMPI PUSH1 0x40 MLOAD PUSH4 0xFCE698F7 PUSH1 0xE0 SHL DUP2 MSTORE PUSH1 0x4 DUP2 ADD DUP3 SWAP1 MSTORE PUSH1 0x24 ADD PUSH2 0x717 JUMP JUMPDEST PUSH1 0x3 DUP3 PUSH1 0x3 DUP2 GT ISZERO PUSH2 0x1705 JUMPI PUSH2 0x1705 PUSH2 0x1A06 JUMP JUMPDEST SUB PUSH2 0x1726 JUMPI PUSH1 0x40 MLOAD PUSH4 0x35E2F383 PUSH1 0xE2 SHL DUP2 MSTORE PUSH1 0x4 DUP2 ADD DUP3 SWAP1 MSTORE PUSH1 0x24 ADD PUSH2 0x717 JUMP JUMPDEST POP POP JUMP JUMPDEST PUSH1 0x0 DUP1 DUP1 PUSH32 0x7FFFFFFFFFFFFFFFFFFFFFFFFFFFFFFF5D576E7357A4501DDFE92F46681B20A0 DUP5 GT ISZERO PUSH2 0x1765 JUMPI POP PUSH1 0x0 SWAP2 POP PUSH1 0x3 SWAP1 POP DUP3 PUSH2 0x17EF JUMP JUMPDEST PUSH1 0x40 DUP1 MLOAD PUSH1 0x0 DUP1 DUP3 MSTORE PUSH1 0x20 DUP3 ADD DUP1 DUP5 MSTORE DUP11 SWAP1 MSTORE PUSH1 0xFF DUP10 AND SWAP3 DUP3 ADD SWAP3 SWAP1 SWAP3 MSTORE PUSH1 0x60 DUP2 ADD DUP8 SWAP1 MSTORE PUSH1 0x80 DUP2 ADD DUP7 SWAP1 MSTORE PUSH1 0x1 SWAP1 PUSH1 0xA0 ADD PUSH1 0x20 PUSH1 0x40 MLOAD PUSH1 0x20 DUP2 SUB SWAP1 DUP1 DUP5 SUB SWAP1 DUP6 GAS STATICCALL ISZERO DUP1 ISZERO PUSH2 0x17B9 JUMPI RETURNDATASIZE PUSH1 0x0 DUP1 RETURNDATACOPY RETURNDATASIZE PUSH1 0x0 REVERT JUMPDEST POP POP PUSH1 0x40 MLOAD PUSH1 0x1F NOT ADD MLOAD SWAP2 POP POP PUSH1 0x1 PUSH1 0x1 PUSH1 0xA0 SHL SUB DUP2 AND PUSH2 0x17E5 JUMPI POP PUSH1 0x0 SWAP3 POP PUSH1 0x1 SWAP2 POP DUP3 SWAP1 POP PUSH2 0x17EF JUMP JUMPDEST SWAP3 POP PUSH1 0x0 SWAP2 POP DUP2 SWAP1 POP JUMPDEST SWAP5 POP SWAP5 POP SWAP5 SWAP2 POP POP JUMP JUMPDEST PUSH1 0x0 PUSH1 0x20 DUP3 DUP5 SUB SLT ISZERO PUSH2 0x180B JUMPI PUSH1 0x0 DUP1 REVERT JUMPDEST DUP2 CALLDATALOAD PUSH1 0x1 PUSH1 0x1 PUSH1 0xA0 SHL SUB DUP2 AND DUP2 EQ PUSH2 0x1822 JUMPI PUSH1 0x0 DUP1 REVERT JUMPDEST SWAP4 SWAP3 POP POP POP JUMP JUMPDEST PUSH1 0x0 DUP1 PUSH1 0x40 DUP4 DUP6 SUB SLT ISZERO PUSH2 0x183C JUMPI PUSH1 0x0 DUP1 REVERT JUMPDEST POP POP DUP1 CALLDATALOAD SWAP3 PUSH1 0x20 SWAP1 SWAP2 ADD CALLDATALOAD SWAP2 POP JUMP JUMPDEST PUSH1 0x0 DUP1 DUP4 PUSH1 0x1F DUP5 ADD SLT PUSH2 0x185D JUMPI PUSH1 0x0 DUP1 REVERT JUMPDEST POP DUP2 CALLDATALOAD PUSH8 0xFFFFFFFFFFFFFFFF DUP2 GT ISZERO PUSH2 0x1875 JUMPI PUSH1 0x0 DUP1 REVERT JUMPDEST PUSH1 0x20 DUP4 ADD SWAP2 POP DUP4 PUSH1 0x20 DUP3 DUP6 ADD ADD GT ISZERO PUSH2 0x188D JUMPI PUSH1 0x0 DUP1 REVERT JUMPDEST SWAP3 POP SWAP3 SWAP1 POP JUMP JUMPDEST PUSH1 0x0 DUP1 PUSH1 0x0 DUP1 PUSH1 0x0 DUP1 PUSH1 0xA0 DUP8 DUP10 SUB SLT ISZERO PUSH2 0x18AD JUMPI PUSH1 0x0 DUP1 REVERT JUMPDEST DUP7 CALLDATALOAD SWAP6 POP PUSH1 0x20 DUP8 ADD CALLDATALOAD SWAP5 POP PUSH1 0x40 DUP8 ADD CALLDATALOAD SWAP4 POP PUSH1 0x60 DUP8 ADD CALLDATALOAD SWAP3 POP PUSH1 0x80 DUP8 ADD CALLDATALOAD PUSH8 0xFFFFFFFFFFFFFFFF DUP2 GT ISZERO PUSH2 0x18E0 JUMPI PUSH1 0x0 DUP1 REVERT JUMPDEST PUSH2 0x18EC DUP10 DUP3 DUP11 ADD PUSH2 0x184B JUMP JUMPDEST SWAP8 SWAP11 SWAP7 SWAP10 POP SWAP5 SWAP8 POP SWAP3 SWAP6 SWAP4 SWAP5 SWAP3 POP POP POP JUMP JUMPDEST PUSH1 0x0 PUSH1 0x20 DUP3 DUP5 SUB SLT ISZERO PUSH2 0x1910 JUMPI PUSH1 0x0 DUP1 REVERT JUMPDEST POP CALLDATALOAD SWAP2 SWAP1 POP JUMP JUMPDEST PUSH1 0x0 DUP1 PUSH1 0x0 DUP1 PUSH1 0x0 PUSH1 0x80 DUP7 DUP9 SUB SLT ISZERO PUSH2 0x192F JUMPI PUSH1 0x0 DUP1 REVERT JUMPDEST DUP6 CALLDATALOAD SWAP5 POP PUSH1 0x20 DUP7 ADD CALLDATALOAD SWAP4 POP PUSH1 0x40 DUP7 ADD CALLDATALOAD SWAP3 POP PUSH1 0x60 DUP7 ADD CALLDATALOAD PUSH8 0xFFFFFFFFFFFFFFFF DUP2 GT ISZERO PUSH2 0x195B JUMPI PUSH1 0x0 DUP1 REVERT JUMPDEST PUSH2 0x1967 DUP9 DUP3 DUP10 ADD PUSH2 0x184B JUMP JUMPDEST SWAP7 SWAP10 SWAP6 SWAP9 POP SWAP4 SWAP7 POP SWAP3 SWAP5 SWAP4 SWAP3 POP POP POP JUMP JUMPDEST PUSH4 0x4E487B71 PUSH1 0xE0 SHL PUSH1 0x0 MSTORE PUSH1 0x11 PUSH1 0x4 MSTORE PUSH1 0x24 PUSH1 0x0 REVERT JUMPDEST DUP1 DUP3 ADD DUP1 DUP3 GT ISZERO PUSH2 0x6CF JUMPI PUSH2 0x6CF PUSH2 0x1978 JUMP JUMPDEST DUP1 DUP3 MUL DUP2 ISZERO DUP3 DUP3 DIV DUP5 EQ OR PUSH2 0x6CF JUMPI PUSH2 0x6CF PUSH2 0x1978 JUMP JUMPDEST PUSH1 0x0 DUP3 PUSH2 0x19D5 JUMPI PUSH4 0x4E487B71 PUSH1 0xE0 SHL PUSH1 0x0 MSTORE PUSH1 0x12 PUSH1 0x4 MSTORE PUSH1 0x24 PUSH1 0x0 REVERT JUMPDEST POP DIV SWAP1 JUMP JUMPDEST DUP2 DUP2 SUB DUP2 DUP2 GT ISZERO PUSH2 0x6CF JUMPI PUSH2 0x6CF PUSH2 0x1978 JUMP JUMPDEST PUSH1 0x0 PUSH1 0x1 DUP3 ADD PUSH2 0x19FF JUMPI PUSH2 0x19FF PUSH2 0x1978 JUMP JUMPDEST POP PUSH1 0x1 ADD SWAP1 JUMP JUMPDEST PUSH4 0x4E487B71 PUSH1 0xE0 SHL PUSH1 0x0 MSTORE PUSH1 0x21 PUSH1 0x4 MSTORE PUSH1 0x24 PUSH1 0x0 REVERT INVALID LOG2 PUSH5 0x6970667358 0x22 SLT KECCAK256 0x5E SWAP4 0xED SHL PUSH14 0xCC51BD9F6C5EB17204DB2CB12EF8 PUSH10 0x87E515381E5C8DB29FAB 0x24 LT PUSH5 0x736F6C6343 STOP ADDMOD EQ STOP CALLER LOG2 PUSH5 0x6970667358 0x22 SLT KECCAK256 SWAP12 PUSH19 0xAD5BBE4FA4A329BAE859E193DCC73B5A4EFB1 0xF8 0xC0 0xBB JUMP DUP3 0x5C 0xE 0xC6 ADD 0xB1 PUSH2 0x6473 PUSH16 0x6C634300081400330000000000000000 "},"methodIdentifiers":{"createMarket(string,uint256,uint256,uint256,uint256,uint256,uint256,uint256,address)":"2b17e975","getAllMarkets()":"b0772d0b","getMarket(uint256)":"eb44fdd3","markets(uint256)":"b1283e77","marketsCount()":"1e8b5708","owner()":"8da5cb5b"}}}}}