{
  "_format": "hh-sol-artifact-1",
  "contractName": "DepegProtectionFactory",
  "sourceName": "contracts/DepegProtectionFactory.sol",
  "abi": [
    {
      "inputs": [],
      "stateMutability": "nonpayable",
      "type": "constructor"
    },
    {
      "anonymous": false,
      "inputs": [
        {
          "indexed": true,
          "internalType": "address",
          "name": "market",
          "type": "address"
        },
        {
          "indexed": true,
          "internalType": "address",
          "name": "creator",
          "type": "address"
        },
        {
          "indexed": false,
          "internalType": "uint256",
          "name": "index",
          "type": "uint256"
        },
        {
          "indexed": false,
          "internalType": "bytes32",
          "name": "feedId",
          "type": "bytes32"
        },
        {
          "indexed": false,
          "internalType": "uint256",
          "name": "barrierPpm",
          "type": "uint256"
        },
        {
          "indexed": false,
          "internalType": "uint256",
          "name": "windowSec",
          "type": "uint256"
        },
        {
          "indexed": false,
          "internalType": "uint256",
          "name": "horizonSec",
          "type": "uint256"
        }
      ],
      "name": "MarketCreated",
      "type": "event"
    },
    {
      "inputs": [
        {
          "internalType": "string",
          "name": "feedSymbol",
          "type": "string"
        },
        {
          "internalType": "uint256",
          "name": "barrierPpm",
          "type": "uint256"
        },
        {
          "internalType": "uint256",
          "name": "windowSec",
          "type": "uint256"
        },
        {
          "internalType": "uint256",
          "name": "horizonSec",
          "type": "uint256"
        },
        {
          "internalType": "uint256",
          "name": "lambdaMinBps",
          "type": "uint256"
        },
        {
          "internalType": "uint256",
          "name": "lambdaMaxBps",
          "type": "uint256"
        },
        {
          "internalType": "uint256",
          "name": "reserveFactorBps",
          "type": "uint256"
        },
        {
          "internalType": "uint256",
          "name": "maxPriceAgeSec",
          "type": "uint256"
        },
        {
          "internalType": "address",
          "name": "oracleSigner",
          "type": "address"
        }
      ],
      "name": "createMarket",
      "outputs": [
        {
          "internalType": "address",
          "name": "marketAddr",
          "type": "address"
        },
        {
          "internalType": "uint256",
          "name": "index",
          "type": "uint256"
        }
      ],
      "stateMutability": "nonpayable",
      "type": "function"
    },
    {
      "inputs": [],
      "name": "getAllMarkets",
      "outputs": [
        {
          "internalType": "address[]",
          "name": "list",
          "type": "address[]"
        }
      ],
      "stateMutability": "view",
      "type": "function"
    },
    {
      "inputs": [
        {
          "internalType": "uint256",
          "name": "index",
          "type": "uint256"
        }
      ],
      "name": "getMarket",
      "outputs": [
        {
          "internalType": "address",
          "name": "market",
          "type": "address"
        },
        {
          "internalType": "address",
          "name": "creator",
          "type": "address"
        },
        {
          "internalType": "uint256",
          "name": "createdAt",
          "type": "uint256"
        }
      ],
      "stateMutability": "view",
      "type": "function"
    },
    {
      "inputs": [
        {
          "internalType": "uint256",
          "name": "",
          "type": "uint256"
        }
      ],
      "name": "markets",
      "outputs": [
        {
          "internalType": "address",
          "name": "market",
          "type": "address"
        },
        {
          "internalType": "address",
          "name": "creator",
          "type": "address"
        },
        {
          "internalType": "uint256",
          "name": "createdAt",
          "type": "uint256"
        }
      ],
      "stateMutability": "view",
      "type": "function"
    },
    {
      "inputs": [],
      "name": "marketsCount",
      "outputs": [
        {
          "internalType": "uint256",
          "name": "",
          "type": "uint256"
        }
      ],
      "stateMutability": "view",
      "type": "function"
    },
    {
      "inputs": [],
      "name": "owner",
      "outputs": [
        {
          "internalType": "address",
          "name": "",
          "type": "address"
        }
      ],
      "stateMutability": "view",
      "type": "function"
    }
  ],
  "bytecode": "0x608060405234801561001057600080fd5b50600080546001600160a01b03191633179055612559806100326000396000f3fe608060405234801561001057600080fd5b50600436106100625760003560e01c80631e8b5708146100675780632b17e9751461007d5780638da5cb5b146100af578063b0772d0b146100da578063b1283e77146100ef578063eb44fdd314610128575b600080fd5b6001546040519081526020015b60405180910390f35b61009061008b366004610535565b61013b565b604080516001600160a01b039093168352602083019190915201610074565b6000546100c2906001600160a01b031681565b6040516001600160a01b039091168152602001610074565b6100e261033a565b604051610074919061063b565b6101026100fd366004610688565b610403565b604080516001600160a01b03948516815293909216602084015290820152606001610074565b610102610136366004610688565b610443565b60008060008b8b8b8b8b8b8b8b8b604051610155906104f6565b610167999897969594939291906106a1565b604051809103906000f080158015610183573d6000803e3d6000fd5b50604080516060810182526001600160a01b038381168252336020830190815242938301938452600180548082018255600082905293517fb10e2d527612073b26eecdfd717e6a320cf44b4afac2b0732d9fcbe2b7fa0cf6600390950294850180546001600160a01b031990811692861692909217905591517fb10e2d527612073b26eecdfd717e6a320cf44b4afac2b0732d9fcbe2b7fa0cf785018054909316931692909217905591517fb10e2d527612073b26eecdfd717e6a320cf44b4afac2b0732d9fcbe2b7fa0cf890910155805491945084925061026491610758565b9150336001600160a01b0316836001600160a01b03167ff9bd2de3ef0ef0c6f252b4bfdfeedc3bc1ec81f2113b49254eb53c9c4c944dbc84846001600160a01b0316634a6434996040518163ffffffff1660e01b8152600401602060405180830381865afa1580156102da573d6000803e3d6000fd5b505050506040513d601f19601f820116820180604052508101906102fe9190610771565b60408051928352602083019190915281018f9052606081018e9052608081018d905260a00160405180910390a350995099975050505050505050565b60015460609067ffffffffffffffff81111561035857610358610503565b604051908082528060200260200182016040528015610381578160200160208202803683370190505b50905060005b6001548110156103ff57600181815481106103a4576103a461078a565b600091825260209091206003909102015482516001600160a01b03909116908390839081106103d5576103d561078a565b6001600160a01b0390921660209283029190910190910152806103f7816107a0565b915050610387565b5090565b6001818154811061041357600080fd5b60009182526020909120600390910201805460018201546002909201546001600160a01b03918216935091169083565b6000806000600180549050841061048c5760405162461bcd60e51b815260206004820152600960248201526824b73232bc1027a7a160b91b604482015260640160405180910390fd5b6000600185815481106104a1576104a161078a565b60009182526020918290206040805160608101825260039390930290910180546001600160a01b0390811680855260018301549091169484018590526002909101549290910182905297919650945092505050565b611d6a806107ba83390190565b634e487b7160e01b600052604160045260246000fd5b80356001600160a01b038116811461053057600080fd5b919050565b60008060008060008060008060006101208a8c03121561055457600080fd5b893567ffffffffffffffff8082111561056c57600080fd5b818c0191508c601f83011261058057600080fd5b81358181111561059257610592610503565b604051601f8201601f19908116603f011681019083821181831017156105ba576105ba610503565b816040528281528f60208487010111156105d357600080fd5b82602086016020830137600060208483010152809d50505050505060208a0135975060408a0135965060608a0135955060808a0135945060a08a0135935060c08a0135925060e08a0135915061062c6101008b01610519565b90509295985092959850929598565b6020808252825182820181905260009190848201906040850190845b8181101561067c5783516001600160a01b031683529284019291840191600101610657565b50909695505050505050565b60006020828403121561069a57600080fd5b5035919050565b60006101208083528b518082850152600091505b808210156106d7576020828e01015161014083860101526020820191506106b5565b6101409150600082828601015281601f19601f830116850101925050508960208301528860408301528760608301528660808301528560a08301528460c08301528360e08301526107346101008301846001600160a01b03169052565b9a9950505050505050505050565b634e487b7160e01b600052601160045260246000fd5b8181038181111561076b5761076b610742565b92915050565b60006020828403121561078357600080fd5b5051919050565b634e487b7160e01b600052603260045260246000fd5b6000600182016107b2576107b2610742565b506001019056fe61018060405260016005553480156200001757600080fd5b5060405162001d6a38038062001d6a8339810160408190526200003a91620000d0565b60008054336001600160a01b03199182161790915589516020909a019990992060805260a09790975260c09590955260e09390935261010091909152610120526101405261016052600180549092166001600160a01b03909116179055620001fc565b634e487b7160e01b600052604160045260246000fd5b80516001600160a01b0381168114620000cb57600080fd5b919050565b60008060008060008060008060006101208a8c031215620000f057600080fd5b89516001600160401b03808211156200010857600080fd5b818c0191508c601f8301126200011d57600080fd5b8151818111156200013257620001326200009d565b604051601f8201601f19908116603f011681019083821181831017156200015d576200015d6200009d565b81604052828152602093508f848487010111156200017a57600080fd5b600091505b828210156200019e57848201840151818301850152908301906200017f565b6000848483010152809d50505050808c01519950505060408a0151965060608a0151955060808a0151945060a08a0151935060c08a0151925060e08a01519150620001ed6101008b01620000b3565b90509295985092959850929598565b60805160a05160c05160e05161010051610120516101405161016051611a5262000318600039600081816104eb01528181610665015261108a0152600081816104c50152818161053b01528181610cc90152818161127f01526113250152600081816101e30152818161049f01528181610ee30152610f600152600081816102d90152818161047901528181610ec201528181610f0a01528181610f3f0152610fa301526000818161038201528181610453015281816111540152818161142401526114f401526000818161042b015281816106310152818161088f01526109fc0152600081816102a50152818161040501526109d6015260008181610271015281816103e2015281816109b0015261112e0152611a526000f3fe60806040526004361061014f5760003560e01c80639c8f9f23116100b6578063cad0b8db1161006f578063cad0b8db1461055d578063cb3ca04914610573578063d3e8948314610589578063d4ce89421461061f578063d78d42d514610653578063e8078d941461068757600080fd5b80639c8f9f2314610350578063a4b137f714610370578063a6159913146103a4578063afa5de48146103b9578063c3f909d4146103cc578063c87bed701461052957600080fd5b80634a643499116101085780634a6434991461025f57806389e8eb47146102935780638aa9aa54146102c75780638da5cb5b146102fb578063975e900e1461031b578063988f13a51461033057600080fd5b80630b65092d1461015b578063102d61461461019b57806315770f92146101bb5780631668f464146101d15780631709a61b1461020557806328bff9db1461023d57600080fd5b3661015657005b600080fd5b34801561016757600080fd5b506101886101763660046117f9565b60036020526000908152604090205481565b6040519081526020015b60405180910390f35b3480156101a757600080fd5b506101886101b6366004611829565b61068f565b3480156101c757600080fd5b5061018860025481565b3480156101dd57600080fd5b506101887f000000000000000000000000000000000000000000000000000000000000000081565b34801561021157600080fd5b50600154610225906001600160a01b031681565b6040516001600160a01b039091168152602001610192565b34801561024957600080fd5b5061025d6102583660046117f9565b6106d5565b005b34801561026b57600080fd5b506101887f000000000000000000000000000000000000000000000000000000000000000081565b34801561029f57600080fd5b506101887f000000000000000000000000000000000000000000000000000000000000000081565b3480156102d357600080fd5b506101887f000000000000000000000000000000000000000000000000000000000000000081565b34801561030757600080fd5b50600054610225906001600160a01b031681565b34801561032757600080fd5b50610188610774565b34801561033c57600080fd5b5061025d61034b366004611894565b6107a7565b34801561035c57600080fd5b5061025d61036b3660046118fe565b610c7f565b34801561037c57600080fd5b506101887f000000000000000000000000000000000000000000000000000000000000000081565b3480156103b057600080fd5b50610188610ebe565b61025d6103c7366004611917565b610fce565b3480156103d857600080fd5b50600154604080517f000000000000000000000000000000000000000000000000000000000000000081527f000000000000000000000000000000000000000000000000000000000000000060208201527f0000000000000000000000000000000000000000000000000000000000000000918101919091527f000000000000000000000000000000000000000000000000000000000000000060608201527f000000000000000000000000000000000000000000000000000000000000000060808201527f000000000000000000000000000000000000000000000000000000000000000060a08201527f000000000000000000000000000000000000000000000000000000000000000060c08201527f000000000000000000000000000000000000000000000000000000000000000060e08201526001600160a01b0390911661010082015261012001610192565b34801561053557600080fd5b506101887f000000000000000000000000000000000000000000000000000000000000000081565b34801561056957600080fd5b5061018860055481565b34801561057f57600080fd5b5061018860045481565b34801561059557600080fd5b506105e66105a43660046118fe565b6006602052600090815260409020805460018201546002830154600384015460048501546005909501546001600160a01b039094169492939192909160ff1686565b604080516001600160a01b03909716875260208701959095529385019290925260608401526080830152151560a082015260c001610192565b34801561062b57600080fd5b506101887f000000000000000000000000000000000000000000000000000000000000000081565b34801561065f57600080fd5b506101887f000000000000000000000000000000000000000000000000000000000000000081565b61025d611549565b60008061069a610ebe565b90506305f5e1006106ad8261271061198e565b6106b785876119a1565b6106c191906119a1565b6106cb91906119b8565b9150505b92915050565b6000546001600160a01b031633146107205760405162461bcd60e51b81526020600482015260096024820152682737ba1037bbb732b960b91b60448201526064015b60405180910390fd5b600180546001600160a01b0319166001600160a01b0383169081179091556040519081527f9787ad339c4bc9e4b4743a2e50da52ee5b40e7096843872095b8280a501522469060200160405180910390a150565b60006002546000036107865750600090565b600254600454610798906127106119a1565b6107a291906119b8565b905090565b600086815260066020526040902080546001600160a01b031633146107fa5760405162461bcd60e51b81526020600482015260096024820152682727aa2fa12aaca2a960b91b6044820152606401610717565b600581015460ff16156108395760405162461bcd60e51b815260206004820152600760248201526610d3105253515160ca1b6044820152606401610717565b80600301548610158015610851575080600401548611155b61088a5760405162461bcd60e51b815260206004820152600a6024820152694f55545f57494e444f5760b01b6044820152606401610717565b6108b47f00000000000000000000000000000000000000000000000000000000000000008761198e565b8510156108ed5760405162461bcd60e51b81526020600482015260076024820152662120a22fa92aa760c91b6044820152606401610717565b844210156109285760405162461bcd60e51b815260206004820152600860248201526715d0525517d1539160c21b6044820152606401610717565b6201518061093685426119da565b11156109715760405162461bcd60e51b815260206004820152600a6024820152695354414c455f5452494760b01b6044820152606401610717565b604080516d4644433a545249474745525f563160901b6020808301919091523060601b6bffffffffffffffffffffffff1916602e8301524660428301527f000000000000000000000000000000000000000000000000000000000000000060628301527f000000000000000000000000000000000000000000000000000000000000000060828301527f000000000000000000000000000000000000000000000000000000000000000060a283015260c2820189905260e28201889052600160f81b61010283015261010380830188905283518084039091018152610123830184528051908201207f19457468657265756d205369676e6564204d6573736167653a0a33320000000061014384015261015f808401919091528351808403909101815261017f90920190925280519101206000610ae48286868080601f0160208091040260200160405190810160405280939291908181526020018383808284376000920191909152506115f692505050565b6001549091506001600160a01b03808316911614610b2e5760405162461bcd60e51b81526020600482015260076024820152664241445f53494760c81b6044820152606401610717565b60058301805460ff1916600190811790915583015460048054600090610b559084906119da565b90915550506001830154471015610b9a5760405162461bcd60e51b8152602060048201526009602482015268125394d3d31591539560ba1b6044820152606401610717565b825460018401546040516000926001600160a01b031691908381818185875af1925050503d8060008114610bea576040519150601f19603f3d011682016040523d82523d6000602084013e610bef565b606091505b5050905080610c2b5760405162461bcd60e51b815260206004820152600860248201526714105657d190525360c21b6044820152606401610717565b835460018501546040519081526001600160a01b03909116908b907f4ec90e965519d92681267467f775ada5bd214aa92c0dc93d90a5e880ce9ed0269060200160405180910390a350505050505050505050565b3360009081526003602052604090205481811015610cc55760405162461bcd60e51b815260206004820152600360248201526210905360ea1b6044820152606401610717565b60007f0000000000000000000000000000000000000000000000000000000000000000600454612710610cf891906119a1565b610d0291906119b8565b9050806002541015610d4a5760405162461bcd60e51b8152602060048201526011602482015270125394d551919250d251539517d413d3d3607a1b6044820152606401610717565b60008160025411610d5c576000610d6a565b81600254610d6a91906119da565b905060006002548285610d7d91906119a1565b610d8791906119b8565b905080851115610dca5760405162461bcd60e51b815260206004820152600e60248201526d15d2551211149055d7d31253525560921b6044820152606401610717565b610dd485856119da565b3360009081526003602052604081209190915560028054879290610df99084906119da565b9091555050604051600090339087908381818185875af1925050503d8060008114610e40576040519150601f19603f3d011682016040523d82523d6000602084013e610e45565b606091505b5050905080610e815760405162461bcd60e51b81526020600482015260086024820152672a2920a729a322a960c11b6044820152606401610717565b60405186815233907fc2c3f06e49b9f15e7b4af9055e183b0d73362e033ad82a07dec9bf98401717199060200160405180910390a2505050505050565b60007f00000000000000000000000000000000000000000000000000000000000000007f000000000000000000000000000000000000000000000000000000000000000011610f2c57507f000000000000000000000000000000000000000000000000000000000000000090565b6000610f36610774565b90506000610f847f00000000000000000000000000000000000000000000000000000000000000007f00000000000000000000000000000000000000000000000000000000000000006119da565b9050612710610f9383836119a1565b610f9d91906119b8565b610fc7907f000000000000000000000000000000000000000000000000000000000000000061198e565b9250505090565b600085116110095760405162461bcd60e51b81526020600482015260086024820152671393d51253d3905360c21b6044820152606401610717565b6001546001600160a01b031661104d5760405162461bcd60e51b81526020600482015260096024820152682727afa9a4a3a722a960b91b6044820152606401610717565b824210156110885760405162461bcd60e51b81526020600482015260086024820152674241445f54494d4560c01b6044820152606401610717565b7f00000000000000000000000000000000000000000000000000000000000000006110b384426119da565b11156110eb5760405162461bcd60e51b815260206004820152600760248201526605354414c455f560cc1b6044820152606401610717565b60006111ed8585604080516a4644433a50524f425f563160a81b6020808301919091523060601b6bffffffffffffffffffffffff1916602b83015246603f8301527f0000000000000000000000000000000000000000000000000000000000000000605f8301527f0000000000000000000000000000000000000000000000000000000000000000607f830152609f820185905260bf8083018590528351808403909101815260df830184528051908201207f19457468657265756d205369676e6564204d6573736167653a0a33320000000060ff84015261011b8084018290528451808503909101815261013b9093019093528151910120600091906106cb565b905060006112318285858080601f0160208091040260200160405190810160405280939291908181526020018383808284376000920191909152506115f692505050565b6001549091506001600160a01b0380831691161461127b5760405162461bcd60e51b81526020600482015260076024820152664241445f53494760c81b6044820152606401610717565b60007f0000000000000000000000000000000000000000000000000000000000000000116112d15760405162461bcd60e51b815260206004820152600360248201526252455360e81b6044820152606401610717565b60006002541161130c5760405162461bcd60e51b81526020600482015260066024820152654e4f5f4c495160d01b6044820152606401610717565b60008760045461131c919061198e565b905060006127107f000000000000000000000000000000000000000000000000000000000000000060025461135191906119a1565b61135b91906119b8565b9050808211156113985760405162461bcd60e51b8152602060048201526008602482015267434150414349545960c01b6044820152606401610717565b60006113a48a8a61068f565b90508034146113df5760405162461bcd60e51b81526020600482015260076024820152665052454d49554d60c81b6044820152606401610717565b60058054600091826113f0836119ed565b9190505590506040518060c00160405280336001600160a01b031681526020018c81526020018381526020014281526020017f00000000000000000000000000000000000000000000000000000000000000004261144e919061198e565b81526000602091820181905283815260068252604090819020835181546001600160a01b0319166001600160a01b03909116178155918301516001830155820151600282015560608201516003820155608082015160048083019190915560a0909201516005909101805460ff191691151591909117905584905533817f769125ea19d73e738071160f34a919829f06d67f3aac561fc983185169e141c78d85426115197f00000000000000000000000000000000000000000000000000000000000000008261198e565b60408051948552602085019390935291830152606082015260800160405180910390a35050505050505050505050565b600034116115825760405162461bcd60e51b8152602060048201526006602482015265105353d5539560d21b6044820152606401610717565b33600090815260036020526040812080543492906115a190849061198e565b9250508190555034600260008282546115ba919061198e565b909155505060405134815233907fc17cea59c2955cb181b03393209566960365771dbba9dc3d510180e7cb3120889060200160405180910390a2565b6000806000806116068686611620565b925092509250611616828261166d565b5090949350505050565b6000806000835160410361165a5760208401516040850151606086015160001a61164c8882858561172a565b955095509550505050611666565b50508151600091506002905b9250925092565b600082600381111561168157611681611a06565b0361168a575050565b600182600381111561169e5761169e611a06565b036116bc5760405163f645eedf60e01b815260040160405180910390fd5b60028260038111156116d0576116d0611a06565b036116f15760405163fce698f760e01b815260048101829052602401610717565b600382600381111561170557611705611a06565b03611726576040516335e2f38360e21b815260048101829052602401610717565b5050565b600080807f7fffffffffffffffffffffffffffffff5d576e7357a4501ddfe92f46681b20a084111561176557506000915060039050826117ef565b604080516000808252602082018084528a905260ff891692820192909252606081018790526080810186905260019060a0016020604051602081039080840390855afa1580156117b9573d6000803e3d6000fd5b5050604051601f1901519150506001600160a01b0381166117e5575060009250600191508290506117ef565b9250600091508190505b9450945094915050565b60006020828403121561180b57600080fd5b81356001600160a01b038116811461182257600080fd5b9392505050565b6000806040838503121561183c57600080fd5b50508035926020909101359150565b60008083601f84011261185d57600080fd5b50813567ffffffffffffffff81111561187557600080fd5b60208301915083602082850101111561188d57600080fd5b9250929050565b60008060008060008060a087890312156118ad57600080fd5b86359550602087013594506040870135935060608701359250608087013567ffffffffffffffff8111156118e057600080fd5b6118ec89828a0161184b565b979a9699509497509295939492505050565b60006020828403121561191057600080fd5b5035919050565b60008060008060006080868803121561192f57600080fd5b853594506020860135935060408601359250606086013567ffffffffffffffff81111561195b57600080fd5b6119678882890161184b565b969995985093965092949392505050565b634e487b7160e01b600052601160045260246000fd5b808201808211156106cf576106cf611978565b80820281158282048414176106cf576106cf611978565b6000826119d557634e487b7160e01b600052601260045260246000fd5b500490565b818103818111156106cf576106cf611978565b6000600182016119ff576119ff611978565b5060010190565b634e487b7160e01b600052602160045260246000fdfea26469706673582212205e93ed1b6dcc51bd9f6c5eb17204db2cb12ef86987e515381e5c8db29fab241064736f6c63430008140033a26469706673582212209b720ad5bbe4fa4a329bae859e193dcc73b5a4efb1f8c0bb56825c0ec601b16164736f6c63430008140033",
  "linkReferences": {},
  "deployedLinkReferences": {}
}